{"abi":[{"type":"function","name":"isIntentSettled","inputs":[{"name":"intentId","type":"bytes32","internalType":"bytes32"}],"outputs":[{"name":"settled","type":"bool","internalType":"bool"}],"stateMutability":"view"},{"type":"event","name":"ArbitrageExecuted","inputs":[{"name":"opportunityId","type":"bytes32","indexed":true,"internalType":"bytes32"},{"name":"profit","type":"uint256","indexed":false,"internalType":"uint256"},{"name":"amountOut","type":"uint256","indexed":false,"internalType":"uint256"},{"name":"beneficiary","type":"address","indexed":true,"internalType":"address"}],"anonymous":false},{"type":"event","name":"CrossChainArbitrageInitiated","inputs":[{"name":"intentId","type":"bytes32","indexed":true,"internalType":"bytes32"},{"name":"user","type":"address","indexed":true,"internalType":"address"},{"name":"opportunityId","type":"bytes32","indexed":true,"internalType":"bytes32"},{"name":"amountIn","type":"uint256","indexed":false,"internalType":"uint256"},{"name":"targetChainId","type":"uint256","indexed":false,"internalType":"uint256"}],"anonymous":false},{"type":"event","name":"ProfitDistributed","inputs":[{"name":"opportunityId","type":"bytes32","indexed":true,"internalType":"bytes32"},{"name":"user","type":"address","indexed":true,"internalType":"address"},{"name":"userShare","type":"uint256","indexed":false,"internalType":"uint256"},{"name":"protocolFee","type":"uint256","indexed":false,"internalType":"uint256"}],"anonymous":false},{"type":"error","name":"InvalidChainId","inputs":[]},{"type":"error","name":"OnlyAcrossProtocol","inputs":[]},{"type":"error","name":"SafeERC20FailedOperation","inputs":[{"name":"token","type":"address","internalType":"address"}]}],"bytecode":{"object":"0x60808060405234601b5761086390816100208239308160080152f35b5f80fdfe608080604052307f0000000000000000000000000000000000000000000000000000000000000000146004361015610035575f80fd5b5f3560e01c918263197557281461068957508163358e62ff146106465781636a88ed8f146103205781636c88762d146102ca578163816207b714610146575063caadcae814610082575f80fd5b60803660031901126101425761009661069e565b506044355f60606040516100a9816106b4565b8281528260208201528260408201520152600a8102811590828104600a1482171561012e5761271090049060328302928304603214171561012e576040516080926100f3826106b4565b82825260606020830192603c84526127106040820193048352019162030d408352604051938452516020840152516040830152516060820152f35b634e487b7160e01b5f52601160045260245ffd5b5f80fd5b6101425761015336610706565b91549091906001600160a01b031633036102bb576040820190815160968102908082046096148115171561012e5761271061018f920490610813565b9151808311156102b3576101a39083610820565b905b81158015610218575b507f70c2bef2f3540072232d41c8d10e03cb521ed181e7ff653b68e15537452f778a604060209581516101e488820180936107b8565b61010081526101f5610120826106e4565b51902081519485528685018690526001600160a01b0390931693a3604051908152f35b93611b58830294838604611b5814171561012e5760407f70c2bef2f3540072232d41c8d10e03cb521ed181e7ff653b68e15537452f778a91612710602097046102618187610820565b81610271575b50509550506101ae565b8351918252888201526001600160a01b038516905f907f275d0197bfed8218ab826ffd9332a887f2f78f5ee96480df7a73bf6cd4e7fc48908590a38780610267565b505f906101a5565b63100033d160e31b5f5260045ffd5b610142576060366003190112610142576044356001600160a01b0381168103610142576024355f9081526004356001016020526040902080546001600160a01b0319166001600160a01b03909216919091179055005b6101425761032d36610706565b82549192916001600160a01b031615610637576040519260208401916307dd0b1b60e01b835261036060248601836107b8565b6001600160a01b0316610124858101829052855290610381610144866106e4565b63ffffffff610394600386015442610813565b169363ffffffff6103a9600483015442610813565b169560018060a01b0383511694604084019560205f8851604051838101916323b872dd60e01b83523360248301523060448301526064820152606481526103f16084826106e4565b519082855af1156105d4575f513d61062e5750803b155b61061c575083518354875160405163095ea7b360e01b81526001600160a01b039283166004820152602481019190915291602091839160449183915f91165af180156105d4576105df575b5060209260018060a01b03905416905f6101a460018060a01b0387511660018060a01b038789015116938a519660a08a019d8e519d6040519e8f9a8b998a97633dc9c91960e11b89523060048a01523060248a01526044890152606488015280608488015260a487015260c48601528660e486015263ffffffff4216610104860152610124850152610144840152610180610164840152518091816101848501528484015e8181018301849052601f01601f191681010301925af19384156105d4575f9461057e575b507f4950a46dd1c16064b78c8b605c0ee00fe675e5fbc30d414ea532e34e5900f5f86040602096869382516105548a820180936107b8565b6101008152610565610120826106e4565b51902095519051825191825288820152a4604051908152f35b9493506020853d6020116105cc575b8161059a602093836106e4565b8101031261014257935192937f4950a46dd1c16064b78c8b605c0ee00fe675e5fbc30d414ea532e34e5900f5f861051c565b3d915061058d565b6040513d5f823e3d90fd5b6020813d602011610614575b816105f8602093836106e4565b8101031261014257519283151584036101425792506020610453565b3d91506105eb565b635274afe760e01b5f5260045260245ffd5b60011415610408565b633d23e4d160e11b5f5260045ffd5b61014257604036600319011261014257603c600480356001600160a01b0361066c61069e565b82546001600160a01b031916911617815561384060038201550155005b60203660031901126101425780600160209252f35b602435906001600160a01b038216820361014257565b6080810190811067ffffffffffffffff8211176106d057604052565b634e487b7160e01b5f52604160045260245ffd5b90601f8019910116810190811067ffffffffffffffff8211176106d057604052565b906101406003198301126101425761010060043592602319011261014257604051610100810181811067ffffffffffffffff8211176106d0576040526024356001600160a01b03811681036101425781526044356001600160a01b03811681036101425760208201526064356040820152608435606082015260a435608082015260c43560a082015260e43560c08201526101043560e082015290610124356001600160a01b03811681036101425790565b60e0809160018060a01b03815116845260018060a01b03602082015116602085015260408101516040850152606081015160608501526080810151608085015260a081015160a085015260c081015160c08501520151910152565b9190820180921161012e57565b9190820391821161012e5756fea2646970667358221220b53f6a67e74ed0d724dee32699d7a4f5f58fd2b4639422fccd5f8e8d8efa279964736f6c634300081a0033","linkReferences":{}},"methodIdentifiers":{"addSpokePool(AcrossIntegration.AcrossConfig storage,uint256,address)":"6c88762d","createArbitrageIntent(AcrossIntegration.AcrossConfig storage,IArbitrageHook.ArbitrageOpportunity,address)":"6a88ed8f","executeArbitrageOnDestination(AcrossIntegration.AcrossConfig storage,IArbitrageHook.ArbitrageOpportunity,address)":"816207b7","getBridgeQuote(AcrossIntegration.AcrossConfig storage,address,uint256,uint256)":"caadcae8","initialize(AcrossIntegration.AcrossConfig storage,address)":"358e62ff","isIntentSettled(bytes32)":"19755728"},"id":85}