{"abi":[{"type":"constructor","inputs":[{"name":"_poolManager","type":"address","internalType":"contract IPoolManager"},{"name":"_acrossSpokePool","type":"address","internalType":"address"},{"name":"_arbitrageManager","type":"address","internalType":"address"},{"name":"_chainManager","type":"address","internalType":"address"},{"name":"_profitDistributor","type":"address","internalType":"address"}],"stateMutability":"nonpayable"},{"type":"function","name":"addOracle","inputs":[{"name":"token","type":"address","internalType":"address"},{"name":"chainId","type":"uint256","internalType":"uint256"},{"name":"feedAddress","type":"address","internalType":"address"},{"name":"heartbeat","type":"uint256","internalType":"uint256"},{"name":"decimals","type":"uint8","internalType":"uint8"}],"outputs":[],"stateMutability":"nonpayable"},{"type":"function","name":"addSpokePool","inputs":[{"name":"chainId","type":"uint256","internalType":"uint256"},{"name":"spokePool","type":"address","internalType":"address"}],"outputs":[],"stateMutability":"nonpayable"},{"type":"function","name":"afterAddLiquidity","inputs":[{"name":"sender","type":"address","internalType":"address"},{"name":"key","type":"tuple","internalType":"struct PoolKey","components":[{"name":"currency0","type":"address","internalType":"Currency"},{"name":"currency1","type":"address","internalType":"Currency"},{"name":"fee","type":"uint24","internalType":"uint24"},{"name":"tickSpacing","type":"int24","internalType":"int24"},{"name":"hooks","type":"address","internalType":"contract IHooks"}]},{"name":"params","type":"tuple","internalType":"struct ModifyLiquidityParams","components":[{"name":"tickLower","type":"int24","internalType":"int24"},{"name":"tickUpper","type":"int24","internalType":"int24"},{"name":"liquidityDelta","type":"int256","internalType":"int256"},{"name":"salt","type":"bytes32","internalType":"bytes32"}]},{"name":"delta","type":"int256","internalType":"BalanceDelta"},{"name":"feesAccrued","type":"int256","internalType":"BalanceDelta"},{"name":"hookData","type":"bytes","internalType":"bytes"}],"outputs":[{"name":"","type":"bytes4","internalType":"bytes4"},{"name":"","type":"int256","internalType":"BalanceDelta"}],"stateMutability":"nonpayable"},{"type":"function","name":"afterDonate","inputs":[{"name":"sender","type":"address","internalType":"address"},{"name":"key","type":"tuple","internalType":"struct PoolKey","components":[{"name":"currency0","type":"address","internalType":"Currency"},{"name":"currency1","type":"address","internalType":"Currency"},{"name":"fee","type":"uint24","internalType":"uint24"},{"name":"tickSpacing","type":"int24","internalType":"int24"},{"name":"hooks","type":"address","internalType":"contract IHooks"}]},{"name":"amount0","type":"uint256","internalType":"uint256"},{"name":"amount1","type":"uint256","internalType":"uint256"},{"name":"hookData","type":"bytes","internalType":"bytes"}],"outputs":[{"name":"","type":"bytes4","internalType":"bytes4"}],"stateMutability":"nonpayable"},{"type":"function","name":"afterInitialize","inputs":[{"name":"sender","type":"address","internalType":"address"},{"name":"key","type":"tuple","internalType":"struct PoolKey","components":[{"name":"currency0","type":"address","internalType":"Currency"},{"name":"currency1","type":"address","internalType":"Currency"},{"name":"fee","type":"uint24","internalType":"uint24"},{"name":"tickSpacing","type":"int24","internalType":"int24"},{"name":"hooks","type":"address","internalType":"contract IHooks"}]},{"name":"sqrtPriceX96","type":"uint160","internalType":"uint160"},{"name":"tick","type":"int24","internalType":"int24"}],"outputs":[{"name":"","type":"bytes4","internalType":"bytes4"}],"stateMutability":"nonpayable"},{"type":"function","name":"afterRemoveLiquidity","inputs":[{"name":"sender","type":"address","internalType":"address"},{"name":"key","type":"tuple","internalType":"struct PoolKey","components":[{"name":"currency0","type":"address","internalType":"Currency"},{"name":"currency1","type":"address","internalType":"Currency"},{"name":"fee","type":"uint24","internalType":"uint24"},{"name":"tickSpacing","type":"int24","internalType":"int24"},{"name":"hooks","type":"address","internalType":"contract IHooks"}]},{"name":"params","type":"tuple","internalType":"struct ModifyLiquidityParams","components":[{"name":"tickLower","type":"int24","internalType":"int24"},{"name":"tickUpper","type":"int24","internalType":"int24"},{"name":"liquidityDelta","type":"int256","internalType":"int256"},{"name":"salt","type":"bytes32","internalType":"bytes32"}]},{"name":"delta","type":"int256","internalType":"BalanceDelta"},{"name":"feesAccrued","type":"int256","internalType":"BalanceDelta"},{"name":"hookData","type":"bytes","internalType":"bytes"}],"outputs":[{"name":"","type":"bytes4","internalType":"bytes4"},{"name":"","type":"int256","internalType":"BalanceDelta"}],"stateMutability":"nonpayable"},{"type":"function","name":"afterSwap","inputs":[{"name":"sender","type":"address","internalType":"address"},{"name":"key","type":"tuple","internalType":"struct PoolKey","components":[{"name":"currency0","type":"address","internalType":"Currency"},{"name":"currency1","type":"address","internalType":"Currency"},{"name":"fee","type":"uint24","internalType":"uint24"},{"name":"tickSpacing","type":"int24","internalType":"int24"},{"name":"hooks","type":"address","internalType":"contract IHooks"}]},{"name":"params","type":"tuple","internalType":"struct SwapParams","components":[{"name":"zeroForOne","type":"bool","internalType":"bool"},{"name":"amountSpecified","type":"int256","internalType":"int256"},{"name":"sqrtPriceLimitX96","type":"uint160","internalType":"uint160"}]},{"name":"delta","type":"int256","internalType":"BalanceDelta"},{"name":"hookData","type":"bytes","internalType":"bytes"}],"outputs":[{"name":"","type":"bytes4","internalType":"bytes4"},{"name":"","type":"int128","internalType":"int128"}],"stateMutability":"nonpayable"},{"type":"function","name":"analyzeArbitrageOpportunity","inputs":[{"name":"key","type":"tuple","internalType":"struct PoolKey","components":[{"name":"currency0","type":"address","internalType":"Currency"},{"name":"currency1","type":"address","internalType":"Currency"},{"name":"fee","type":"uint24","internalType":"uint24"},{"name":"tickSpacing","type":"int24","internalType":"int24"},{"name":"hooks","type":"address","internalType":"contract IHooks"}]},{"name":"params","type":"tuple","internalType":"struct SwapParams","components":[{"name":"zeroForOne","type":"bool","internalType":"bool"},{"name":"amountSpecified","type":"int256","internalType":"int256"},{"name":"sqrtPriceLimitX96","type":"uint160","internalType":"uint160"}]}],"outputs":[{"name":"opportunity","type":"tuple","internalType":"struct IArbitrageHook.ArbitrageOpportunity","components":[{"name":"tokenIn","type":"address","internalType":"address"},{"name":"tokenOut","type":"address","internalType":"address"},{"name":"amountIn","type":"uint256","internalType":"uint256"},{"name":"expectedProfitBPS","type":"uint256","internalType":"uint256"},{"name":"originChainId","type":"uint256","internalType":"uint256"},{"name":"targetChainId","type":"uint256","internalType":"uint256"},{"name":"routeHash","type":"bytes32","internalType":"bytes32"},{"name":"timestamp","type":"uint256","internalType":"uint256"}]}],"stateMutability":"view"},{"type":"function","name":"arbitrageManager","inputs":[],"outputs":[{"name":"","type":"address","internalType":"contract ArbitrageManager"}],"stateMutability":"view"},{"type":"function","name":"beforeAddLiquidity","inputs":[{"name":"sender","type":"address","internalType":"address"},{"name":"key","type":"tuple","internalType":"struct PoolKey","components":[{"name":"currency0","type":"address","internalType":"Currency"},{"name":"currency1","type":"address","internalType":"Currency"},{"name":"fee","type":"uint24","internalType":"uint24"},{"name":"tickSpacing","type":"int24","internalType":"int24"},{"name":"hooks","type":"address","internalType":"contract IHooks"}]},{"name":"params","type":"tuple","internalType":"struct ModifyLiquidityParams","components":[{"name":"tickLower","type":"int24","internalType":"int24"},{"name":"tickUpper","type":"int24","internalType":"int24"},{"name":"liquidityDelta","type":"int256","internalType":"int256"},{"name":"salt","type":"bytes32","internalType":"bytes32"}]},{"name":"hookData","type":"bytes","internalType":"bytes"}],"outputs":[{"name":"","type":"bytes4","internalType":"bytes4"}],"stateMutability":"nonpayable"},{"type":"function","name":"beforeDonate","inputs":[{"name":"sender","type":"address","internalType":"address"},{"name":"key","type":"tuple","internalType":"struct PoolKey","components":[{"name":"currency0","type":"address","internalType":"Currency"},{"name":"currency1","type":"address","internalType":"Currency"},{"name":"fee","type":"uint24","internalType":"uint24"},{"name":"tickSpacing","type":"int24","internalType":"int24"},{"name":"hooks","type":"address","internalType":"contract IHooks"}]},{"name":"amount0","type":"uint256","internalType":"uint256"},{"name":"amount1","type":"uint256","internalType":"uint256"},{"name":"hookData","type":"bytes","internalType":"bytes"}],"outputs":[{"name":"","type":"bytes4","internalType":"bytes4"}],"stateMutability":"nonpayable"},{"type":"function","name":"beforeInitialize","inputs":[{"name":"sender","type":"address","internalType":"address"},{"name":"key","type":"tuple","internalType":"struct PoolKey","components":[{"name":"currency0","type":"address","internalType":"Currency"},{"name":"currency1","type":"address","internalType":"Currency"},{"name":"fee","type":"uint24","internalType":"uint24"},{"name":"tickSpacing","type":"int24","internalType":"int24"},{"name":"hooks","type":"address","internalType":"contract IHooks"}]},{"name":"sqrtPriceX96","type":"uint160","internalType":"uint160"}],"outputs":[{"name":"","type":"bytes4","internalType":"bytes4"}],"stateMutability":"nonpayable"},{"type":"function","name":"beforeRemoveLiquidity","inputs":[{"name":"sender","type":"address","internalType":"address"},{"name":"key","type":"tuple","internalType":"struct PoolKey","components":[{"name":"currency0","type":"address","internalType":"Currency"},{"name":"currency1","type":"address","internalType":"Currency"},{"name":"fee","type":"uint24","internalType":"uint24"},{"name":"tickSpacing","type":"int24","internalType":"int24"},{"name":"hooks","type":"address","internalType":"contract IHooks"}]},{"name":"params","type":"tuple","internalType":"struct ModifyLiquidityParams","components":[{"name":"tickLower","type":"int24","internalType":"int24"},{"name":"tickUpper","type":"int24","internalType":"int24"},{"name":"liquidityDelta","type":"int256","internalType":"int256"},{"name":"salt","type":"bytes32","internalType":"bytes32"}]},{"name":"hookData","type":"bytes","internalType":"bytes"}],"outputs":[{"name":"","type":"bytes4","internalType":"bytes4"}],"stateMutability":"nonpayable"},{"type":"function","name":"beforeSwap","inputs":[{"name":"sender","type":"address","internalType":"address"},{"name":"key","type":"tuple","internalType":"struct PoolKey","components":[{"name":"currency0","type":"address","internalType":"Currency"},{"name":"currency1","type":"address","internalType":"Currency"},{"name":"fee","type":"uint24","internalType":"uint24"},{"name":"tickSpacing","type":"int24","internalType":"int24"},{"name":"hooks","type":"address","internalType":"contract IHooks"}]},{"name":"params","type":"tuple","internalType":"struct SwapParams","components":[{"name":"zeroForOne","type":"bool","internalType":"bool"},{"name":"amountSpecified","type":"int256","internalType":"int256"},{"name":"sqrtPriceLimitX96","type":"uint160","internalType":"uint160"}]},{"name":"hookData","type":"bytes","internalType":"bytes"}],"outputs":[{"name":"","type":"bytes4","internalType":"bytes4"},{"name":"","type":"int256","internalType":"BeforeSwapDelta"},{"name":"","type":"uint24","internalType":"uint24"}],"stateMutability":"nonpayable"},{"type":"function","name":"chainManager","inputs":[],"outputs":[{"name":"","type":"address","internalType":"contract ChainManager"}],"stateMutability":"view"},{"type":"function","name":"executeCrossChainArbitrage","inputs":[{"name":"user","type":"address","internalType":"address"},{"name":"opportunity","type":"tuple","internalType":"struct IArbitrageHook.ArbitrageOpportunity","components":[{"name":"tokenIn","type":"address","internalType":"address"},{"name":"tokenOut","type":"address","internalType":"address"},{"name":"amountIn","type":"uint256","internalType":"uint256"},{"name":"expectedProfitBPS","type":"uint256","internalType":"uint256"},{"name":"originChainId","type":"uint256","internalType":"uint256"},{"name":"targetChainId","type":"uint256","internalType":"uint256"},{"name":"routeHash","type":"bytes32","internalType":"bytes32"},{"name":"timestamp","type":"uint256","internalType":"uint256"}]}],"outputs":[{"name":"intentId","type":"bytes32","internalType":"bytes32"}],"stateMutability":"nonpayable"},{"type":"function","name":"gasBufferBPS","inputs":[],"outputs":[{"name":"","type":"uint256","internalType":"uint256"}],"stateMutability":"view"},{"type":"function","name":"getHookPermissions","inputs":[],"outputs":[{"name":"","type":"tuple","internalType":"struct Hooks.Permissions","components":[{"name":"beforeInitialize","type":"bool","internalType":"bool"},{"name":"afterInitialize","type":"bool","internalType":"bool"},{"name":"beforeAddLiquidity","type":"bool","internalType":"bool"},{"name":"afterAddLiquidity","type":"bool","internalType":"bool"},{"name":"beforeRemoveLiquidity","type":"bool","internalType":"bool"},{"name":"afterRemoveLiquidity","type":"bool","internalType":"bool"},{"name":"beforeSwap","type":"bool","internalType":"bool"},{"name":"afterSwap","type":"bool","internalType":"bool"},{"name":"beforeDonate","type":"bool","internalType":"bool"},{"name":"afterDonate","type":"bool","internalType":"bool"},{"name":"beforeSwapReturnDelta","type":"bool","internalType":"bool"},{"name":"afterSwapReturnDelta","type":"bool","internalType":"bool"},{"name":"afterAddLiquidityReturnDelta","type":"bool","internalType":"bool"},{"name":"afterRemoveLiquidityReturnDelta","type":"bool","internalType":"bool"}]}],"stateMutability":"pure"},{"type":"function","name":"getMultiChainPrices","inputs":[{"name":"tokenA","type":"address","internalType":"address"},{"name":"tokenB","type":"address","internalType":"address"}],"outputs":[{"name":"prices","type":"tuple[]","internalType":"struct IArbitrageHook.ChainPriceData[]","components":[{"name":"chainId","type":"uint256","internalType":"uint256"},{"name":"price","type":"uint256","internalType":"uint256"},{"name":"liquidity","type":"uint256","internalType":"uint256"},{"name":"gasEstimate","type":"uint256","internalType":"uint256"},{"name":"timestamp","type":"uint256","internalType":"uint256"}]}],"stateMutability":"view"},{"type":"function","name":"getPendingArbitrage","inputs":[{"name":"intentId","type":"bytes32","internalType":"bytes32"}],"outputs":[{"name":"arbitrage","type":"tuple","internalType":"struct IArbitrageHook.PendingArbitrage","components":[{"name":"user","type":"address","internalType":"address"},{"name":"opportunity","type":"tuple","internalType":"struct IArbitrageHook.ArbitrageOpportunity","components":[{"name":"tokenIn","type":"address","internalType":"address"},{"name":"tokenOut","type":"address","internalType":"address"},{"name":"amountIn","type":"uint256","internalType":"uint256"},{"name":"expectedProfitBPS","type":"uint256","internalType":"uint256"},{"name":"originChainId","type":"uint256","internalType":"uint256"},{"name":"targetChainId","type":"uint256","internalType":"uint256"},{"name":"routeHash","type":"bytes32","internalType":"bytes32"},{"name":"timestamp","type":"uint256","internalType":"uint256"}]},{"name":"timestamp","type":"uint256","internalType":"uint256"},{"name":"status","type":"uint8","internalType":"enum IArbitrageHook.ArbitrageStatus"}]}],"stateMutability":"view"},{"type":"function","name":"isChainSupported","inputs":[{"name":"","type":"uint256","internalType":"uint256"}],"outputs":[{"name":"","type":"bool","internalType":"bool"}],"stateMutability":"view"},{"type":"function","name":"isProfitable","inputs":[{"name":"opportunity","type":"tuple","internalType":"struct IArbitrageHook.ArbitrageOpportunity","components":[{"name":"tokenIn","type":"address","internalType":"address"},{"name":"tokenOut","type":"address","internalType":"address"},{"name":"amountIn","type":"uint256","internalType":"uint256"},{"name":"expectedProfitBPS","type":"uint256","internalType":"uint256"},{"name":"originChainId","type":"uint256","internalType":"uint256"},{"name":"targetChainId","type":"uint256","internalType":"uint256"},{"name":"routeHash","type":"bytes32","internalType":"bytes32"},{"name":"timestamp","type":"uint256","internalType":"uint256"}]}],"outputs":[{"name":"profitable","type":"bool","internalType":"bool"}],"stateMutability":"view"},{"type":"function","name":"maxSlippageBPS","inputs":[],"outputs":[{"name":"","type":"uint256","internalType":"uint256"}],"stateMutability":"view"},{"type":"function","name":"minProfitBPS","inputs":[],"outputs":[{"name":"","type":"uint256","internalType":"uint256"}],"stateMutability":"view"},{"type":"function","name":"owner","inputs":[],"outputs":[{"name":"","type":"address","internalType":"address"}],"stateMutability":"view"},{"type":"function","name":"pendingArbitrages","inputs":[{"name":"","type":"bytes32","internalType":"bytes32"}],"outputs":[{"name":"user","type":"address","internalType":"address"},{"name":"opportunity","type":"tuple","internalType":"struct IArbitrageHook.ArbitrageOpportunity","components":[{"name":"tokenIn","type":"address","internalType":"address"},{"name":"tokenOut","type":"address","internalType":"address"},{"name":"amountIn","type":"uint256","internalType":"uint256"},{"name":"expectedProfitBPS","type":"uint256","internalType":"uint256"},{"name":"originChainId","type":"uint256","internalType":"uint256"},{"name":"targetChainId","type":"uint256","internalType":"uint256"},{"name":"routeHash","type":"bytes32","internalType":"bytes32"},{"name":"timestamp","type":"uint256","internalType":"uint256"}]},{"name":"timestamp","type":"uint256","internalType":"uint256"},{"name":"status","type":"uint8","internalType":"enum IArbitrageHook.ArbitrageStatus"}],"stateMutability":"view"},{"type":"function","name":"poolManager","inputs":[],"outputs":[{"name":"","type":"address","internalType":"contract IPoolManager"}],"stateMutability":"view"},{"type":"function","name":"profitDistributor","inputs":[],"outputs":[{"name":"","type":"address","internalType":"contract ProfitDistributor"}],"stateMutability":"view"},{"type":"function","name":"renounceOwnership","inputs":[],"outputs":[],"stateMutability":"nonpayable"},{"type":"function","name":"setManagerContracts","inputs":[{"name":"_arbitrageManager","type":"address","internalType":"address"},{"name":"_chainManager","type":"address","internalType":"address"},{"name":"_profitDistributor","type":"address","internalType":"address"}],"outputs":[],"stateMutability":"nonpayable"},{"type":"function","name":"supportedChains","inputs":[{"name":"","type":"uint256","internalType":"uint256"}],"outputs":[{"name":"","type":"uint256","internalType":"uint256"}],"stateMutability":"view"},{"type":"function","name":"transferOwnership","inputs":[{"name":"newOwner","type":"address","internalType":"address"}],"outputs":[],"stateMutability":"nonpayable"},{"type":"function","name":"updateConfiguration","inputs":[{"name":"_minProfitBPS","type":"uint256","internalType":"uint256"},{"name":"_maxSlippageBPS","type":"uint256","internalType":"uint256"},{"name":"_userProfitShareBPS","type":"uint256","internalType":"uint256"}],"outputs":[],"stateMutability":"nonpayable"},{"type":"function","name":"updateMEVProtection","inputs":[{"name":"enabled","type":"bool","internalType":"bool"},{"name":"delay","type":"uint256","internalType":"uint256"}],"outputs":[],"stateMutability":"nonpayable"},{"type":"function","name":"userProfitShareBPS","inputs":[],"outputs":[{"name":"","type":"uint256","internalType":"uint256"}],"stateMutability":"view"},{"type":"event","name":"ArbitrageConfigUpdated","inputs":[{"name":"minProfitBPS","type":"uint256","indexed":false,"internalType":"uint256"},{"name":"maxSlippageBPS","type":"uint256","indexed":false,"internalType":"uint256"},{"name":"userProfitShareBPS","type":"uint256","indexed":false,"internalType":"uint256"}],"anonymous":false},{"type":"event","name":"ArbitrageOpportunityDetected","inputs":[{"name":"opportunityId","type":"bytes32","indexed":true,"internalType":"bytes32"},{"name":"tokenIn","type":"address","indexed":true,"internalType":"address"},{"name":"tokenOut","type":"address","indexed":true,"internalType":"address"},{"name":"amountIn","type":"uint256","indexed":false,"internalType":"uint256"},{"name":"expectedProfitBPS","type":"uint256","indexed":false,"internalType":"uint256"},{"name":"originChainId","type":"uint256","indexed":false,"internalType":"uint256"},{"name":"targetChainId","type":"uint256","indexed":false,"internalType":"uint256"}],"anonymous":false},{"type":"event","name":"OwnershipTransferred","inputs":[{"name":"previousOwner","type":"address","indexed":true,"internalType":"address"},{"name":"newOwner","type":"address","indexed":true,"internalType":"address"}],"anonymous":false},{"type":"error","name":"FrontRunningDetected","inputs":[]},{"type":"error","name":"HookNotImplemented","inputs":[]},{"type":"error","name":"InsufficientProfit","inputs":[]},{"type":"error","name":"InvalidHookData","inputs":[]},{"type":"error","name":"NotPoolManager","inputs":[]},{"type":"error","name":"OwnableInvalidOwner","inputs":[{"name":"owner","type":"address","internalType":"address"}]},{"type":"error","name":"OwnableUnauthorizedAccount","inputs":[{"name":"account","type":"address","internalType":"address"}]},{"type":"error","name":"ReentrancyGuardReentrantCall","inputs":[]}],"bytecode":{"object":"0x60a08060405234610485575f9060a08161264b80380380916100218285610588565b833981010312610485578051906001600160a01b03821682036104855761004a602082016105ab565b610056604083016105ab565b9061006f6080610068606086016105ab565b94016105ab565b936080525f6101a060405161008381610558565b8281528260208201528260408201528260608201528260808201528260a08201528260c08201528260e0820152826101008201528261012082015282610140820152826101608201528261018082015201525f6101a06040516100e581610558565b8281528260208201528260408201528260608201528260808201528260a0820152600160c0820152600160e08201528261010082015282610120820152826101408201528261016082015282610180820152015261200030161580159061054b575b801561053e575b8015610531575b8015610524575b8015610517575b8015610507575b80156104f7575b80156104eb575b80156104df575b80156104d3575b80156104c7575b80156104bb575b80156104af575b61049c573315610489575f8054336001600160a01b0319821681178355604051939290916001600160a01b0316907f8be0079c531659141344cd1fd0a4f28419497f9722a3daafe3b4186f6b6457e09080a36001805560326013556064601455611b5860155560c860165573__$bce2662ec09944c50280375c5a91455adc$__90813b156104855763358e62ff60e01b83526004808401526001600160a01b031660248301525f90829060449082905af4801561047a57610465575b506001600160a01b03168061044b575b506001600160a01b031680610431575b506001600160a01b031680610417575b506009805460ff19166001179055601e600a556064600b556005600c55662386f26fc10000600d5560405160a081016001600160401b03811182821017610403576040526001815261a4b16020820152612105604082015260896060820152600a60808201526017546005601755806005106103b6575b50601782525f8051602061262b83398151915290825b600581106103a25783805b601754811015610359575f8051602061262b8339815191528101548252601860205260408220805460ff191660019081179091550161031f565b60405161206b90816105c0823960805181818161023a0152818161032c0152818161037c0152818161073b015281816107d301528181610aa701528181610c4d0152610f2a0152f35b600190602083519301928185015501610314565b601783525f8051602061262b833981519152017fc624b66cc0138b8fabc209247f72d758e1cf3343756d543badbf24212bed8c1a5b8181106103f857506102fe565b8381556001016103eb565b634e487b7160e01b83526041600452602483fd5b601280546001600160a01b0319169190911790555f610287565b601180546001600160a01b0319169190911790555f610277565b601080546001600160a01b0319169190911790555f610267565b6104729194505f90610588565b5f925f610257565b6040513d5f823e3d90fd5b5f80fd5b631e4fbdf760e01b5f525f60045260245ffd5b630732d7b560e51b5f523060045260245ffd5b5060013016151561019b565b50600230161515610194565b5060043016151561018d565b50600830161515610186565b5060103016151561017f565b50602030161515610178565b5060403016151560011415610171565b506080301615156001141561016a565b5061010030161515610163565b506102003016151561015c565b5061040030161515610155565b506108003016151561014e565b5061100030161515610147565b6101c081019081106001600160401b0382111761057457604052565b634e487b7160e01b5f52604160045260245ffd5b601f909101601f19168101906001600160401b0382119082101761057457604052565b51906001600160a01b03821682036104855756fe60806040526004361015610011575f80fd5b5f803560e01c80631313d24514610f865780631911687a14610f6857806321d0ee7014610f13578063259982e514610f1357806326f5de6d14610e80578063380cd38514610d975780633c07c3a114610d7957806344abab7b14610d3157806346dfce9d14610d135780635221c1f014610ce4578063548d496f14610caa578063575e24b414610bf55780635a3f2bdf14610bb75780635d82481214610b8e5780636a778db714610ae15780636c2bbe7e146107bc5780636fe7e6eb14610a65578063715018a614610a0b57806378f9dfff146109255780638da5cb5b146108fe5780639050eed7146108315780639e33cdaa146108135780639f063efc146107bc578063b445abe114610793578063b47b2fb1146106e3578063b4bda533146105ce578063b6a8b0fa14610223578063c4e833ce14610465578063c501651a146103d4578063cc13b0c7146103ab578063dc4c90d314610366578063dc98354e146102f7578063dd48632714610285578063e1b4af69146102235763f2fde38b1461019b575f80fd5b34610220576020366003190112610220576101b461103d565b6101bc611486565b6001600160a01b0316801561020c5781546001600160a01b03198116821783556001600160a01b03167f8be0079c531659141344cd1fd0a4f28419497f9722a3daafe3b4186f6b6457e08380a380f35b631e4fbdf760e01b82526004829052602482fd5b80fd5b503461022057600490610235366112a8565b5050507f00000000000000000000000000000000000000000000000000000000000000006001600160a01b03163303925061027991505057630a85dc2960e01b8152fd5b63570c108560e11b8152fd5b50346102205760203660031901126102205760406101609160043581526019602052206102f560018060a01b03825416916102c2600182016112ff565b906102e460ff600a600984015493015416926040519586526020860190611181565b6101208401526101408301906111dc565bf35b50346102205760e03660031901126102205761031161103d565b5060a036602319011261022057600490610329611292565b507f00000000000000000000000000000000000000000000000000000000000000006001600160a01b0316330361027957630a85dc2960e01b8152fd5b50346102205780600319360112610220576040517f00000000000000000000000000000000000000000000000000000000000000006001600160a01b03168152602090f35b50346102205780600319360112610220576010546040516001600160a01b039091168152602090f35b503461022057606036600319011261022057604435906024356004356103f8611486565b6127108411610456576104507f93777e77228c5b7297a9e128488c685d257db9d69d5cea54c6a706f5f3926f409394826013558360145580601555604051938493846040919493926060820195825260208201520152565b0390a180f35b636acdab4d60e11b8352600483fd5b5034610220578060031936011261022057806101c0916101a060405161048a81611128565b8281528260208201528260408201528260608201528260808201528260a08201528260c08201528260e082015282610100820152826101208201528261014082015282610160820152826101808201520152604051906104e982611128565b808252602082019181835260408101828152606082018381526080830184815260a0840185815260c085016001815260e0860190600182526101008701928884526101208801948986526101408901968a88526101608a01988b8a526101a06101808c019b8d8d52019b808d5260206040519e8f92835251151591015251151560408d015251151560608c015251151560808b015251151560a08a015251151560c089015251151560e08801525115156101008701525115156101208601525115156101408501525115156101608401525115156101808301525115156101a0820152f35b5034610220576040366003190112610220576105e861103d565b6105f0611027565b60405163ac4a1c9560e01b8152600260048201526001600160a01b03928316602482015291166044820152818160648173__$91904be14b2f2d83076961c641e5a8c935$__5af49081156106d85782916106b6575b5090604051918291602083016020845282518091526020604085019301915b818110610672575050500390f35b91935091602060a060019260808751805183528481015185840152604081015160408401526060810151606084015201516080820152019401910191849392610664565b6106d291503d8084833e6106ca8183611160565b8101906113b8565b5f610645565b6040513d84823e3d90fd5b503461022057610160366003190112610220576106fe61103d565b5060a03660231901126102205760603660c319011261022057610144356001600160401b03811161078f57610737903690600401611069565b50507f00000000000000000000000000000000000000000000000000000000000000006001600160a01b031633036107805760409081519063b47b2fb160e01b82526020820152f35b63570c108560e11b8152600490fd5b5080fd5b50346102205780600319360112610220576012546040516001600160a01b039091168152602090f35b5034610220576004906107ce36611229565b5050507f00000000000000000000000000000000000000000000000000000000000000006001600160a01b0316330393506102799250505057630a85dc2960e01b8152fd5b50346102205780600319360112610220576020601354604051908152f35b50346102205760a0366003190112610220578061084c61103d565b610854611053565b906084359160ff83168093036108f95761086c611486565b73__$91904be14b2f2d83076961c641e5a8c935$__803b156108f557849260c491604051958694859363c3431d4560e01b85526002600486015260018060a01b03166024850152602435604485015260018060a01b03166064840152606435608484015260a48301525af480156106d8576108e45750f35b816108ee91611160565b6102205780f35b8480fd5b505050fd5b5034610220578060031936011261022057546040516001600160a01b039091168152602090f35b5034610220576101203660031901126102205761094061103d565b61010036602319011261078f576040519161095a83611144565b6024356001600160a01b038116810361078f5783526044356001600160a01b038116810361078f5760208401526064356040840152608435606084015260a435608084015260c43560a084015260e43560c08401526101043560e08401526002600154146109fc5760026001556109d0836114ac565b156109ed5760206109e18484611d72565b60018055604051908152f35b632723fc7560e11b8152600490fd5b633ee5aeb560e01b8152600490fd5b5034610220578060031936011261022057610a24611486565b80546001600160a01b03198116825581906001600160a01b03167f8be0079c531659141344cd1fd0a4f28419497f9722a3daafe3b4186f6b6457e08280a380f35b50346102205761010036600319011261022057610a8061103d565b5060a036602319011261022057610a95611292565b5060e4358060020b03610220576004907f00000000000000000000000000000000000000000000000000000000000000006001600160a01b0316330361027957630a85dc2960e01b8152fd5b503461022057606036600319011261022057610afb61103d565b610b03611027565b610b0b611053565b91610b14611486565b6001600160a01b031680610b75575b506001600160a01b031680610b5c575b506001600160a01b031680610b46575080f35b6001600160601b0360a01b601254161760125580f35b6001600160601b0360a01b60115416176011555f610b33565b6001600160601b0360a01b60105416176010555f610b23565b50346102205780600319360112610220576011546040516001600160a01b039091168152602090f35b50346102205760403660031901126102205760043580151580910361078f57610bde611486565b60ff801960095416911617600955602435600c5580f35b50346102205761014036600319011261022057610c1061103d565b9060a03660231901126102205760603660c319011261022057610124356001600160401b03811161078f57610c49903690600401611069565b50507f00000000000000000000000000000000000000000000000000000000000000006001600160a01b0316330361078057606062ffffff610c8a84611bb1565b906040939293519363ffffffff60e01b1684526020840152166040820152f35b50346102205760203660031901126102205760043590601754821015610220576020610cd5836111fd565b90549060031b1c604051908152f35b50346102205760203660031901126102205760ff60406020926004358152601884522054166040519015158152f35b50346102205780600319360112610220576020601554604051908152f35b5034610220573660031901610100811261078f5760a0136102205760603660a319011261022057610d60611365565b50610100610d6c611515565b6102f56040518092611181565b50346102205780600319360112610220576020601654604051908152f35b503461022057602036600319011261022057806060604051610db8816110f9565b828152610dc3611365565b60208201528260408201520152600435815260196020526040812060405190610deb826110f9565b80546001600160a01b03168252610e04600182016112ff565b6020830190815260ff600a6009840154936040860194855201541660608401946004821015610e6c5750845260405192516001600160a01b0316835251610160936102f5929091610e59906020860190611181565b51610120840152516101408301906111dc565b634e487b7160e01b81526021600452602490fd5b5034610220576101003660031901126102205760405190610ea082611144565b6004356001600160a01b038116810361078f578252602435906001600160a01b0382168203610220576020610f0984848382015260443560408201526064356060820152608435608082015260a43560a082015260c43560c082015260e43560e08201526114ac565b6040519015158152f35b503461022057600490610f2536611096565b5050507f00000000000000000000000000000000000000000000000000000000000000006001600160a01b031633039150610279905057630a85dc2960e01b8152fd5b50346102205780600319360112610220576020601454604051908152f35b503461102357604036600319011261102357610fa0611027565b610fa8611486565b73__$bce2662ec09944c50280375c5a91455adc$__90813b1561102357604051636c88762d60e01b815260048082018190523560248201526001600160a01b039091166044820152905f90829060649082905af480156110185761100a575080f35b61101691505f90611160565b005b6040513d5f823e3d90fd5b5f80fd5b602435906001600160a01b038216820361102357565b600435906001600160a01b038216820361102357565b604435906001600160a01b038216820361102357565b9181601f84011215611023578235916001600160401b038311611023576020838186019501011161102357565b90610160600319830112611023576004356001600160a01b0381168103611023579160a060231982011261102357602491608060c3198301126110235760c49161014435906001600160401b038211611023576110f591600401611069565b9091565b608081019081106001600160401b0382111761111457604052565b634e487b7160e01b5f52604160045260245ffd5b6101c081019081106001600160401b0382111761111457604052565b61010081019081106001600160401b0382111761111457604052565b90601f801991011681019081106001600160401b0382111761111457604052565b60e0809160018060a01b03815116845260018060a01b03602082015116602085015260408101516040850152606081015160608501526080810151608085015260a081015160a085015260c081015160c08501520151910152565b9060048210156111e95752565b634e487b7160e01b5f52602160045260245ffd5b6017548110156112155760175f5260205f2001905f90565b634e487b7160e01b5f52603260045260245ffd5b906101a0600319830112611023576004356001600160a01b0381168103611023579160a060231982011261102357602491608060c3198301126110235760c4916101443591610164359161018435906001600160401b038211611023576110f591600401611069565b60c435906001600160a01b038216820361102357565b610120600319820112611023576004356001600160a01b0381168103611023579160a06023198301126110235760249160c4359160e4359161010435906001600160401b038211611023576110f591600401611069565b9060405161130c81611144565b82546001600160a01b0390811682526001840154166020820152600283015460408201526003830154606082015260048301546080820152600583015460a0820152600683015460c082015260079092015460e0830152565b6040519061137282611144565b5f60e0838281528260208201528260408201528260608201528260808201528260a08201528260c08201520152565b6001600160401b0381116111145760051b60200190565b602081830312611023578051906001600160401b038211611023570181601f82011215611023578051906113eb826113a1565b926113f96040519485611160565b828452602060a081860194028301019181831161102357602001925b828410611423575050505090565b60a084830312611023576040519060a08201908282106001600160401b038311176111145760a092602092604052865181528287015183820152604087015160408201526060870151606082015260808701516080820152815201930192611415565b5f546001600160a01b0316330361149957565b63118cdaa760e01b5f523360045260245ffd5b6060810151601354111590816114c0575090565b60a09150015146141590565b356001600160a01b03811681036110235790565b51906001600160a01b038216820361102357565b8051156112155760200190565b80518210156112155760209160051b010190565b61151d611365565b506004356001600160a01b038116908181036110235750806024356001600160a01b038116908181036110235750809160c435915f8312611875575b50506010546001600160a01b031680611716575b505f46915f601754905b818110611605575050604080516001600160a01b038088166020830190815290871692820192909252606081018590526115be81608081015b03601f198101835282611160565b51902093604051956115cf87611144565b6001600160a01b0390811687521660208601526040850152606084015246608084015260a083015260c08201524260e082015290565b61160e816111fd565b90549060031b1c46811461170d5760405163b4bda53360e01b81526001600160a01b03898116600483015288166024820152905f82604481305afa5f92816116f1575b506116625750506001905b01611577565b955f99939998929791985b89518110156116e05787611681828c611501565b5151146116905760010161166d565b9860606116b78b60206116ae989e986116c1969c979d989e86611501565b51015193611501565b5101519086611ecd565b8581116116d3575b505060019061165c565b909550935060015f6116c9565b50955095600191975097919761165c565b6117069193503d805f833e6106ca8183611160565b915f611651565b5060019061165c565b6040516335903d1360e11b81526001600160a01b0385811660048301528416602482015260448101839052905f90829060649082905afa5f9181611773575b501561156d5780511561156d5791505061176f91506114f4565b5190565b9091503d805f833e6117858183611160565b810190602081830312611023578051906001600160401b038211611023570181601f82011215611023578051906117bb826113a1565b926117c96040519485611160565b82845260208085019360081b8301019181831161102357602001925b8284106117f75750505050905f611755565b610100848303126110235760206101009160405161181481611144565b61181d876114e0565b815261182a8388016114e0565b8382015260408701516040820152606087015160608201526080870151608082015260a087015160a082015260c087015160c082015260e087015160e08201528152019301926117e5565b9093509150600160ff1b8114611891575f039190915f80611559565b634e487b7160e01b5f52601160045260245ffd5b906118ae611365565b506001600160a01b036118c0836114cc565b16916001600160a01b03906118d7906020016114cc565b169060200135815f8212611b99575b506010546001600160a01b031680611a3e575b505f46915f601754905b818110611940575050604080516001600160a01b038088166020830190815290871692820192909252606081018590526115be81608081016115b0565b611949816111fd565b90549060031b1c468114611a355760405163b4bda53360e01b81526001600160a01b03898116600483015288166024820152905f82604481305afa5f9281611a19575b5061199d5750506001905b01611903565b955f99939998929791985b8951811015611a0857876119bc828c611501565b5151146119cb576001016119a8565b9860606116b78b60206116ae989e986119e9969c979d989e86611501565b8581116119fb575b5050600190611997565b909550935060015f6119f1565b509550956001919750979197611997565b611a2e9193503d805f833e6106ca8183611160565b915f61198c565b50600190611997565b6040516335903d1360e11b81526001600160a01b0385811660048301528416602482015260448101839052905f90829060649082905afa5f9181611a97575b50156118f9578051156118f95791505061176f91506114f4565b9091503d805f833e611aa98183611160565b810190602081830312611023578051906001600160401b038211611023570181601f8201121561102357805190611adf826113a1565b92611aed6040519485611160565b82845260208085019360081b8301019181831161102357602001925b828410611b1b5750505050905f611a7d565b6101008483031261102357602061010091604051611b3881611144565b611b41876114e0565b8152611b4e8388016114e0565b8382015260408701516040820152606087015160608201526080870151608082015260a087015160a082015260c087015160c082015260e087015160e0820152815201930192611b09565b9150600160ff1b8114611891575f039190915f6118e6565b611bbd60c460246118a5565b90611bc7826114ac565b611bdc57506315d7892d60e21b915f91508190565b600a611be88383611d72565b9160405190611bf6826110f9565b6001600160a01b03908116825260208083018681524260408086019182525f60608088018281529982526019865290829020965187549087166001600160a01b03199182161788559351805160018901805491891691871691909117905594850151600288018054919097169416939093179094559282015160038501558101516004808501919091556080820151600585015560a0820151600685015560c0820151600785015560e09091015160088401559051600983015592519101918110156111e95760ff801983541691161790556040516020810190611cda8284611181565b6101008152611ceb61012082611160565b51902060018060a01b03825116907f7f5a7010cc1dbd612d06113046cd9961ad912ee69ebbcbb8d20e528fba04409a608060018060a01b036020860151169460408101519060608101519060a08482015191015191604051938452602084015260408301526060820152a46315d7892d60e21b905f908190565b5190811515820361102357565b6010546001600160a01b031680611e14575b50604051636a88ed8f60e01b815260048082015291611da7906024840190611181565b6001600160a01b03166101248201526020816101448173__$bce2662ec09944c50280375c5a91455adc$__5af4908115611018575f91611de5575090565b90506020813d602011611e0c575b81611e0060209383611160565b81010312611023575190565b3d9150611df3565b60405f91610124825180948193637717a50360e11b8352611e38600484018a611181565b6001600160a01b0388166101048401525af190815f915f93611e71575b50611e61575b50611d84565b611e6b5780611e5b565b91505090565b915091506040813d604011611eab575b81611e8e60409383611160565b81010312611023576020611ea182611d65565b910151915f611e55565b3d9150611e81565b9190820180921161189157565b9190820391821161189157565b909291925f93670de0b6b3a764000082111561202d578183028315928482041483171561189157670de0b6b3a7640000900490600a840290848204600a14841715611891576011546001600160a01b031680611f9a575b50612710611f329204611eb3565b90611f3d8285611eb3565b8111611f4a575b50505050565b83611f619394959650611f5c91611ec0565b611ec0565b90612710820291808304612710149015171561189157611f865704905f808080611f44565b634e487b7160e01b5f52601260045260245ffd5b6040805163a41d86ab60e01b815246600482018190526024820152604481018890529391849060649082905afa805f91611fea575b611f329450611fe0575b5091611f24565b9150612710611fd9565b90506040843d604011612025575b8161200560409383611160565b810103126110235760208461201c611f3296611d65565b50015190611fcf565b3d9150611ff8565b505f9350505056fea2646970667358221220ba6bf7b95920a6c6bf3b6b79fa49a717974f74d54e5032ccaadc988cc871412c64736f6c634300081a0033c624b66cc0138b8fabc209247f72d758e1cf3343756d543badbf24212bed8c15","linkReferences":{"src/libraries/AcrossIntegration.sol":{"AcrossIntegration":[{"start":520,"length":20},{"start":5482,"length":20},{"start":9087,"length":20}]},"src/libraries/PriceOracle.sol":{"PriceOracle":[{"start":3042,"length":20},{"start":3630,"length":20}]}}},"methodIdentifiers":{"addOracle(address,uint256,address,uint256,uint8)":"9050eed7","addSpokePool(uint256,address)":"1313d245","afterAddLiquidity(address,(address,address,uint24,int24,address),(int24,int24,int256,bytes32),int256,int256,bytes)":"9f063efc","afterDonate(address,(address,address,uint24,int24,address),uint256,uint256,bytes)":"e1b4af69","afterInitialize(address,(address,address,uint24,int24,address),uint160,int24)":"6fe7e6eb","afterRemoveLiquidity(address,(address,address,uint24,int24,address),(int24,int24,int256,bytes32),int256,int256,bytes)":"6c2bbe7e","afterSwap(address,(address,address,uint24,int24,address),(bool,int256,uint160),int256,bytes)":"b47b2fb1","analyzeArbitrageOpportunity((address,address,uint24,int24,address),(bool,int256,uint160))":"44abab7b","arbitrageManager()":"cc13b0c7","beforeAddLiquidity(address,(address,address,uint24,int24,address),(int24,int24,int256,bytes32),bytes)":"259982e5","beforeDonate(address,(address,address,uint24,int24,address),uint256,uint256,bytes)":"b6a8b0fa","beforeInitialize(address,(address,address,uint24,int24,address),uint160)":"dc98354e","beforeRemoveLiquidity(address,(address,address,uint24,int24,address),(int24,int24,int256,bytes32),bytes)":"21d0ee70","beforeSwap(address,(address,address,uint24,int24,address),(bool,int256,uint160),bytes)":"575e24b4","chainManager()":"5d824812","executeCrossChainArbitrage(address,(address,address,uint256,uint256,uint256,uint256,bytes32,uint256))":"78f9dfff","gasBufferBPS()":"3c07c3a1","getHookPermissions()":"c4e833ce","getMultiChainPrices(address,address)":"b4bda533","getPendingArbitrage(bytes32)":"380cd385","isChainSupported(uint256)":"5221c1f0","isProfitable((address,address,uint256,uint256,uint256,uint256,bytes32,uint256))":"26f5de6d","maxSlippageBPS()":"1911687a","minProfitBPS()":"9e33cdaa","owner()":"8da5cb5b","pendingArbitrages(bytes32)":"dd486327","poolManager()":"dc4c90d3","profitDistributor()":"b445abe1","renounceOwnership()":"715018a6","setManagerContracts(address,address,address)":"6a778db7","supportedChains(uint256)":"548d496f","transferOwnership(address)":"f2fde38b","updateConfiguration(uint256,uint256,uint256)":"c501651a","updateMEVProtection(bool,uint256)":"5a3f2bdf","userProfitShareBPS()":"46dfce9d"},"id":82}