{"abi":[{"type":"constructor","inputs":[{"name":"_poolManager","type":"address","internalType":"contract IPoolManager"},{"name":"_acrossSpokePool","type":"address","internalType":"address"}],"stateMutability":"nonpayable"},{"type":"function","name":"addOracle","inputs":[{"name":"token","type":"address","internalType":"address"},{"name":"chainId","type":"uint256","internalType":"uint256"},{"name":"feedAddress","type":"address","internalType":"address"},{"name":"heartbeat","type":"uint256","internalType":"uint256"},{"name":"decimals","type":"uint8","internalType":"uint8"}],"outputs":[],"stateMutability":"nonpayable"},{"type":"function","name":"addSpokePool","inputs":[{"name":"chainId","type":"uint256","internalType":"uint256"},{"name":"spokePool","type":"address","internalType":"address"}],"outputs":[],"stateMutability":"nonpayable"},{"type":"function","name":"afterAddLiquidity","inputs":[{"name":"sender","type":"address","internalType":"address"},{"name":"key","type":"tuple","internalType":"struct PoolKey","components":[{"name":"currency0","type":"address","internalType":"Currency"},{"name":"currency1","type":"address","internalType":"Currency"},{"name":"fee","type":"uint24","internalType":"uint24"},{"name":"tickSpacing","type":"int24","internalType":"int24"},{"name":"hooks","type":"address","internalType":"contract IHooks"}]},{"name":"params","type":"tuple","internalType":"struct ModifyLiquidityParams","components":[{"name":"tickLower","type":"int24","internalType":"int24"},{"name":"tickUpper","type":"int24","internalType":"int24"},{"name":"liquidityDelta","type":"int256","internalType":"int256"},{"name":"salt","type":"bytes32","internalType":"bytes32"}]},{"name":"delta","type":"int256","internalType":"BalanceDelta"},{"name":"feesAccrued","type":"int256","internalType":"BalanceDelta"},{"name":"hookData","type":"bytes","internalType":"bytes"}],"outputs":[{"name":"","type":"bytes4","internalType":"bytes4"},{"name":"","type":"int256","internalType":"BalanceDelta"}],"stateMutability":"nonpayable"},{"type":"function","name":"afterDonate","inputs":[{"name":"sender","type":"address","internalType":"address"},{"name":"key","type":"tuple","internalType":"struct PoolKey","components":[{"name":"currency0","type":"address","internalType":"Currency"},{"name":"currency1","type":"address","internalType":"Currency"},{"name":"fee","type":"uint24","internalType":"uint24"},{"name":"tickSpacing","type":"int24","internalType":"int24"},{"name":"hooks","type":"address","internalType":"contract IHooks"}]},{"name":"amount0","type":"uint256","internalType":"uint256"},{"name":"amount1","type":"uint256","internalType":"uint256"},{"name":"hookData","type":"bytes","internalType":"bytes"}],"outputs":[{"name":"","type":"bytes4","internalType":"bytes4"}],"stateMutability":"nonpayable"},{"type":"function","name":"afterInitialize","inputs":[{"name":"sender","type":"address","internalType":"address"},{"name":"key","type":"tuple","internalType":"struct PoolKey","components":[{"name":"currency0","type":"address","internalType":"Currency"},{"name":"currency1","type":"address","internalType":"Currency"},{"name":"fee","type":"uint24","internalType":"uint24"},{"name":"tickSpacing","type":"int24","internalType":"int24"},{"name":"hooks","type":"address","internalType":"contract IHooks"}]},{"name":"sqrtPriceX96","type":"uint160","internalType":"uint160"},{"name":"tick","type":"int24","internalType":"int24"}],"outputs":[{"name":"","type":"bytes4","internalType":"bytes4"}],"stateMutability":"nonpayable"},{"type":"function","name":"afterRemoveLiquidity","inputs":[{"name":"sender","type":"address","internalType":"address"},{"name":"key","type":"tuple","internalType":"struct PoolKey","components":[{"name":"currency0","type":"address","internalType":"Currency"},{"name":"currency1","type":"address","internalType":"Currency"},{"name":"fee","type":"uint24","internalType":"uint24"},{"name":"tickSpacing","type":"int24","internalType":"int24"},{"name":"hooks","type":"address","internalType":"contract IHooks"}]},{"name":"params","type":"tuple","internalType":"struct ModifyLiquidityParams","components":[{"name":"tickLower","type":"int24","internalType":"int24"},{"name":"tickUpper","type":"int24","internalType":"int24"},{"name":"liquidityDelta","type":"int256","internalType":"int256"},{"name":"salt","type":"bytes32","internalType":"bytes32"}]},{"name":"delta","type":"int256","internalType":"BalanceDelta"},{"name":"feesAccrued","type":"int256","internalType":"BalanceDelta"},{"name":"hookData","type":"bytes","internalType":"bytes"}],"outputs":[{"name":"","type":"bytes4","internalType":"bytes4"},{"name":"","type":"int256","internalType":"BalanceDelta"}],"stateMutability":"nonpayable"},{"type":"function","name":"afterSwap","inputs":[{"name":"sender","type":"address","internalType":"address"},{"name":"key","type":"tuple","internalType":"struct PoolKey","components":[{"name":"currency0","type":"address","internalType":"Currency"},{"name":"currency1","type":"address","internalType":"Currency"},{"name":"fee","type":"uint24","internalType":"uint24"},{"name":"tickSpacing","type":"int24","internalType":"int24"},{"name":"hooks","type":"address","internalType":"contract IHooks"}]},{"name":"params","type":"tuple","internalType":"struct SwapParams","components":[{"name":"zeroForOne","type":"bool","internalType":"bool"},{"name":"amountSpecified","type":"int256","internalType":"int256"},{"name":"sqrtPriceLimitX96","type":"uint160","internalType":"uint160"}]},{"name":"delta","type":"int256","internalType":"BalanceDelta"},{"name":"hookData","type":"bytes","internalType":"bytes"}],"outputs":[{"name":"","type":"bytes4","internalType":"bytes4"},{"name":"","type":"int128","internalType":"int128"}],"stateMutability":"nonpayable"},{"type":"function","name":"analyzeArbitrageOpportunity","inputs":[{"name":"key","type":"tuple","internalType":"struct PoolKey","components":[{"name":"currency0","type":"address","internalType":"Currency"},{"name":"currency1","type":"address","internalType":"Currency"},{"name":"fee","type":"uint24","internalType":"uint24"},{"name":"tickSpacing","type":"int24","internalType":"int24"},{"name":"hooks","type":"address","internalType":"contract IHooks"}]},{"name":"params","type":"tuple","internalType":"struct SwapParams","components":[{"name":"zeroForOne","type":"bool","internalType":"bool"},{"name":"amountSpecified","type":"int256","internalType":"int256"},{"name":"sqrtPriceLimitX96","type":"uint160","internalType":"uint160"}]}],"outputs":[{"name":"opportunity","type":"tuple","internalType":"struct IArbitrageHook.ArbitrageOpportunity","components":[{"name":"tokenIn","type":"address","internalType":"address"},{"name":"tokenOut","type":"address","internalType":"address"},{"name":"amountIn","type":"uint256","internalType":"uint256"},{"name":"expectedProfitBPS","type":"uint256","internalType":"uint256"},{"name":"originChainId","type":"uint256","internalType":"uint256"},{"name":"targetChainId","type":"uint256","internalType":"uint256"},{"name":"routeHash","type":"bytes32","internalType":"bytes32"},{"name":"timestamp","type":"uint256","internalType":"uint256"}]}],"stateMutability":"view"},{"type":"function","name":"beforeAddLiquidity","inputs":[{"name":"sender","type":"address","internalType":"address"},{"name":"key","type":"tuple","internalType":"struct PoolKey","components":[{"name":"currency0","type":"address","internalType":"Currency"},{"name":"currency1","type":"address","internalType":"Currency"},{"name":"fee","type":"uint24","internalType":"uint24"},{"name":"tickSpacing","type":"int24","internalType":"int24"},{"name":"hooks","type":"address","internalType":"contract IHooks"}]},{"name":"params","type":"tuple","internalType":"struct ModifyLiquidityParams","components":[{"name":"tickLower","type":"int24","internalType":"int24"},{"name":"tickUpper","type":"int24","internalType":"int24"},{"name":"liquidityDelta","type":"int256","internalType":"int256"},{"name":"salt","type":"bytes32","internalType":"bytes32"}]},{"name":"hookData","type":"bytes","internalType":"bytes"}],"outputs":[{"name":"","type":"bytes4","internalType":"bytes4"}],"stateMutability":"nonpayable"},{"type":"function","name":"beforeDonate","inputs":[{"name":"sender","type":"address","internalType":"address"},{"name":"key","type":"tuple","internalType":"struct PoolKey","components":[{"name":"currency0","type":"address","internalType":"Currency"},{"name":"currency1","type":"address","internalType":"Currency"},{"name":"fee","type":"uint24","internalType":"uint24"},{"name":"tickSpacing","type":"int24","internalType":"int24"},{"name":"hooks","type":"address","internalType":"contract IHooks"}]},{"name":"amount0","type":"uint256","internalType":"uint256"},{"name":"amount1","type":"uint256","internalType":"uint256"},{"name":"hookData","type":"bytes","internalType":"bytes"}],"outputs":[{"name":"","type":"bytes4","internalType":"bytes4"}],"stateMutability":"nonpayable"},{"type":"function","name":"beforeInitialize","inputs":[{"name":"sender","type":"address","internalType":"address"},{"name":"key","type":"tuple","internalType":"struct PoolKey","components":[{"name":"currency0","type":"address","internalType":"Currency"},{"name":"currency1","type":"address","internalType":"Currency"},{"name":"fee","type":"uint24","internalType":"uint24"},{"name":"tickSpacing","type":"int24","internalType":"int24"},{"name":"hooks","type":"address","internalType":"contract IHooks"}]},{"name":"sqrtPriceX96","type":"uint160","internalType":"uint160"}],"outputs":[{"name":"","type":"bytes4","internalType":"bytes4"}],"stateMutability":"nonpayable"},{"type":"function","name":"beforeRemoveLiquidity","inputs":[{"name":"sender","type":"address","internalType":"address"},{"name":"key","type":"tuple","internalType":"struct PoolKey","components":[{"name":"currency0","type":"address","internalType":"Currency"},{"name":"currency1","type":"address","internalType":"Currency"},{"name":"fee","type":"uint24","internalType":"uint24"},{"name":"tickSpacing","type":"int24","internalType":"int24"},{"name":"hooks","type":"address","internalType":"contract IHooks"}]},{"name":"params","type":"tuple","internalType":"struct ModifyLiquidityParams","components":[{"name":"tickLower","type":"int24","internalType":"int24"},{"name":"tickUpper","type":"int24","internalType":"int24"},{"name":"liquidityDelta","type":"int256","internalType":"int256"},{"name":"salt","type":"bytes32","internalType":"bytes32"}]},{"name":"hookData","type":"bytes","internalType":"bytes"}],"outputs":[{"name":"","type":"bytes4","internalType":"bytes4"}],"stateMutability":"nonpayable"},{"type":"function","name":"beforeSwap","inputs":[{"name":"sender","type":"address","internalType":"address"},{"name":"key","type":"tuple","internalType":"struct PoolKey","components":[{"name":"currency0","type":"address","internalType":"Currency"},{"name":"currency1","type":"address","internalType":"Currency"},{"name":"fee","type":"uint24","internalType":"uint24"},{"name":"tickSpacing","type":"int24","internalType":"int24"},{"name":"hooks","type":"address","internalType":"contract IHooks"}]},{"name":"params","type":"tuple","internalType":"struct SwapParams","components":[{"name":"zeroForOne","type":"bool","internalType":"bool"},{"name":"amountSpecified","type":"int256","internalType":"int256"},{"name":"sqrtPriceLimitX96","type":"uint160","internalType":"uint160"}]},{"name":"hookData","type":"bytes","internalType":"bytes"}],"outputs":[{"name":"","type":"bytes4","internalType":"bytes4"},{"name":"","type":"int256","internalType":"BeforeSwapDelta"},{"name":"","type":"uint24","internalType":"uint24"}],"stateMutability":"nonpayable"},{"type":"function","name":"executeCrossChainArbitrage","inputs":[{"name":"user","type":"address","internalType":"address"},{"name":"opportunity","type":"tuple","internalType":"struct IArbitrageHook.ArbitrageOpportunity","components":[{"name":"tokenIn","type":"address","internalType":"address"},{"name":"tokenOut","type":"address","internalType":"address"},{"name":"amountIn","type":"uint256","internalType":"uint256"},{"name":"expectedProfitBPS","type":"uint256","internalType":"uint256"},{"name":"originChainId","type":"uint256","internalType":"uint256"},{"name":"targetChainId","type":"uint256","internalType":"uint256"},{"name":"routeHash","type":"bytes32","internalType":"bytes32"},{"name":"timestamp","type":"uint256","internalType":"uint256"}]}],"outputs":[{"name":"intentId","type":"bytes32","internalType":"bytes32"}],"stateMutability":"nonpayable"},{"type":"function","name":"gasBufferBPS","inputs":[],"outputs":[{"name":"","type":"uint256","internalType":"uint256"}],"stateMutability":"view"},{"type":"function","name":"getHookPermissions","inputs":[],"outputs":[{"name":"","type":"tuple","internalType":"struct Hooks.Permissions","components":[{"name":"beforeInitialize","type":"bool","internalType":"bool"},{"name":"afterInitialize","type":"bool","internalType":"bool"},{"name":"beforeAddLiquidity","type":"bool","internalType":"bool"},{"name":"afterAddLiquidity","type":"bool","internalType":"bool"},{"name":"beforeRemoveLiquidity","type":"bool","internalType":"bool"},{"name":"afterRemoveLiquidity","type":"bool","internalType":"bool"},{"name":"beforeSwap","type":"bool","internalType":"bool"},{"name":"afterSwap","type":"bool","internalType":"bool"},{"name":"beforeDonate","type":"bool","internalType":"bool"},{"name":"afterDonate","type":"bool","internalType":"bool"},{"name":"beforeSwapReturnDelta","type":"bool","internalType":"bool"},{"name":"afterSwapReturnDelta","type":"bool","internalType":"bool"},{"name":"afterAddLiquidityReturnDelta","type":"bool","internalType":"bool"},{"name":"afterRemoveLiquidityReturnDelta","type":"bool","internalType":"bool"}]}],"stateMutability":"pure"},{"type":"function","name":"getMultiChainPrices","inputs":[{"name":"tokenA","type":"address","internalType":"address"},{"name":"tokenB","type":"address","internalType":"address"}],"outputs":[{"name":"prices","type":"tuple[]","internalType":"struct IArbitrageHook.ChainPriceData[]","components":[{"name":"chainId","type":"uint256","internalType":"uint256"},{"name":"price","type":"uint256","internalType":"uint256"},{"name":"liquidity","type":"uint256","internalType":"uint256"},{"name":"gasEstimate","type":"uint256","internalType":"uint256"},{"name":"timestamp","type":"uint256","internalType":"uint256"}]}],"stateMutability":"view"},{"type":"function","name":"getPendingArbitrage","inputs":[{"name":"intentId","type":"bytes32","internalType":"bytes32"}],"outputs":[{"name":"arbitrage","type":"tuple","internalType":"struct IArbitrageHook.PendingArbitrage","components":[{"name":"user","type":"address","internalType":"address"},{"name":"opportunity","type":"tuple","internalType":"struct IArbitrageHook.ArbitrageOpportunity","components":[{"name":"tokenIn","type":"address","internalType":"address"},{"name":"tokenOut","type":"address","internalType":"address"},{"name":"amountIn","type":"uint256","internalType":"uint256"},{"name":"expectedProfitBPS","type":"uint256","internalType":"uint256"},{"name":"originChainId","type":"uint256","internalType":"uint256"},{"name":"targetChainId","type":"uint256","internalType":"uint256"},{"name":"routeHash","type":"bytes32","internalType":"bytes32"},{"name":"timestamp","type":"uint256","internalType":"uint256"}]},{"name":"timestamp","type":"uint256","internalType":"uint256"},{"name":"status","type":"uint8","internalType":"enum IArbitrageHook.ArbitrageStatus"}]}],"stateMutability":"view"},{"type":"function","name":"isChainSupported","inputs":[{"name":"","type":"uint256","internalType":"uint256"}],"outputs":[{"name":"","type":"bool","internalType":"bool"}],"stateMutability":"view"},{"type":"function","name":"isProfitable","inputs":[{"name":"opportunity","type":"tuple","internalType":"struct IArbitrageHook.ArbitrageOpportunity","components":[{"name":"tokenIn","type":"address","internalType":"address"},{"name":"tokenOut","type":"address","internalType":"address"},{"name":"amountIn","type":"uint256","internalType":"uint256"},{"name":"expectedProfitBPS","type":"uint256","internalType":"uint256"},{"name":"originChainId","type":"uint256","internalType":"uint256"},{"name":"targetChainId","type":"uint256","internalType":"uint256"},{"name":"routeHash","type":"bytes32","internalType":"bytes32"},{"name":"timestamp","type":"uint256","internalType":"uint256"}]}],"outputs":[{"name":"profitable","type":"bool","internalType":"bool"}],"stateMutability":"view"},{"type":"function","name":"maxSlippageBPS","inputs":[],"outputs":[{"name":"","type":"uint256","internalType":"uint256"}],"stateMutability":"view"},{"type":"function","name":"minProfitBPS","inputs":[],"outputs":[{"name":"","type":"uint256","internalType":"uint256"}],"stateMutability":"view"},{"type":"function","name":"owner","inputs":[],"outputs":[{"name":"","type":"address","internalType":"address"}],"stateMutability":"view"},{"type":"function","name":"pendingArbitrages","inputs":[{"name":"","type":"bytes32","internalType":"bytes32"}],"outputs":[{"name":"user","type":"address","internalType":"address"},{"name":"opportunity","type":"tuple","internalType":"struct IArbitrageHook.ArbitrageOpportunity","components":[{"name":"tokenIn","type":"address","internalType":"address"},{"name":"tokenOut","type":"address","internalType":"address"},{"name":"amountIn","type":"uint256","internalType":"uint256"},{"name":"expectedProfitBPS","type":"uint256","internalType":"uint256"},{"name":"originChainId","type":"uint256","internalType":"uint256"},{"name":"targetChainId","type":"uint256","internalType":"uint256"},{"name":"routeHash","type":"bytes32","internalType":"bytes32"},{"name":"timestamp","type":"uint256","internalType":"uint256"}]},{"name":"timestamp","type":"uint256","internalType":"uint256"},{"name":"status","type":"uint8","internalType":"enum IArbitrageHook.ArbitrageStatus"}],"stateMutability":"view"},{"type":"function","name":"poolManager","inputs":[],"outputs":[{"name":"","type":"address","internalType":"contract IPoolManager"}],"stateMutability":"view"},{"type":"function","name":"renounceOwnership","inputs":[],"outputs":[],"stateMutability":"nonpayable"},{"type":"function","name":"supportedChains","inputs":[{"name":"","type":"uint256","internalType":"uint256"}],"outputs":[{"name":"","type":"uint256","internalType":"uint256"}],"stateMutability":"view"},{"type":"function","name":"transferOwnership","inputs":[{"name":"newOwner","type":"address","internalType":"address"}],"outputs":[],"stateMutability":"nonpayable"},{"type":"function","name":"updateConfiguration","inputs":[{"name":"_minProfitBPS","type":"uint256","internalType":"uint256"},{"name":"_maxSlippageBPS","type":"uint256","internalType":"uint256"},{"name":"_userProfitShareBPS","type":"uint256","internalType":"uint256"}],"outputs":[],"stateMutability":"nonpayable"},{"type":"function","name":"userProfitShareBPS","inputs":[],"outputs":[{"name":"","type":"uint256","internalType":"uint256"}],"stateMutability":"view"},{"type":"event","name":"ArbitrageConfigUpdated","inputs":[{"name":"minProfitBPS","type":"uint256","indexed":false,"internalType":"uint256"},{"name":"maxSlippageBPS","type":"uint256","indexed":false,"internalType":"uint256"},{"name":"userProfitShareBPS","type":"uint256","indexed":false,"internalType":"uint256"}],"anonymous":false},{"type":"event","name":"ArbitrageOpportunityDetected","inputs":[{"name":"opportunityId","type":"bytes32","indexed":true,"internalType":"bytes32"},{"name":"tokenIn","type":"address","indexed":true,"internalType":"address"},{"name":"tokenOut","type":"address","indexed":true,"internalType":"address"},{"name":"amountIn","type":"uint256","indexed":false,"internalType":"uint256"},{"name":"expectedProfitBPS","type":"uint256","indexed":false,"internalType":"uint256"},{"name":"originChainId","type":"uint256","indexed":false,"internalType":"uint256"},{"name":"targetChainId","type":"uint256","indexed":false,"internalType":"uint256"}],"anonymous":false},{"type":"event","name":"OwnershipTransferred","inputs":[{"name":"previousOwner","type":"address","indexed":true,"internalType":"address"},{"name":"newOwner","type":"address","indexed":true,"internalType":"address"}],"anonymous":false},{"type":"error","name":"HookNotImplemented","inputs":[]},{"type":"error","name":"InsufficientProfit","inputs":[]},{"type":"error","name":"InvalidHookData","inputs":[]},{"type":"error","name":"NotPoolManager","inputs":[]},{"type":"error","name":"OwnableInvalidOwner","inputs":[{"name":"owner","type":"address","internalType":"address"}]},{"type":"error","name":"OwnableUnauthorizedAccount","inputs":[{"name":"account","type":"address","internalType":"address"}]},{"type":"error","name":"ReentrancyGuardReentrantCall","inputs":[]}],"bytecode":{"object":"0x60a080604052346103b8575f90604081611f7a803803809161002182856104bb565b8339810103126103b8578051906001600160a01b03821682036103b857602001516001600160a01b03811691908290036103b8576080525f6101a06040516100688161048b565b8281528260208201528260408201528260608201528260808201528260a08201528260c08201528260e0820152826101008201528261012082015282610140820152826101608201528261018082015201525f6101a06040516100ca8161048b565b8281528260208201528260408201528260608201528260808201528260a0820152600160c0820152600160e08201528261010082015282610120820152826101408201528261016082015282610180820152015261200030161580159061047e575b8015610471575b8015610464575b8015610457575b801561044a575b801561043a575b801561042a575b801561041e575b8015610412575b8015610406575b80156103fa575b80156103ee575b80156103e2575b6103cf5733156103bc575f8054336001600160a01b0319821681178355604051939290916001600160a01b0316907f8be0079c531659141344cd1fd0a4f28419497f9722a3daafe3b4186f6b6457e09080a36001805560326009556064600a55611b58600b5560c8600c5573__$bce2662ec09944c50280375c5a91455adc$__90813b156103b8576044835f93819363358e62ff60e01b835260048084015260248301525af480156103ad5761039a575b5060405160a081016001600160401b03811182821017610386576040526001815261a4b16020820152612105604082015260896060820152600a6080820152600d546005600d5580600510610339575b50600d82525f516020611f5a5f395f51905f5290825b600581106103255783805b600d548110156102dc575f516020611f5a5f395f51905f528101548252600e60205260408220805460ff19166001908117909155016102a2565b604051611a7b90816104df8239608051818181610203015281816102f501528181610345015281816106cb0152818161073a01528181610a1401528181610aa60152610f8b0152f35b600190602083519301928185015501610297565b600d83525f516020611f5a5f395f51905f52017fd7b6990105719101dabeb77144f2a3385c8033acd3af97e9423a695e81ad1eba5b81811061037b5750610281565b83815560010161036e565b634e487b7160e01b83526041600452602483fd5b6103a691505f906104bb565b5f5f610231565b6040513d5f823e3d90fd5b5f80fd5b631e4fbdf760e01b5f525f60045260245ffd5b630732d7b560e51b5f523060045260245ffd5b50600130161515610180565b50600230161515610179565b50600430161515610172565b5060083016151561016b565b50601030161515610164565b5060203016151561015d565b5060403016151560011415610156565b506080301615156001141561014f565b5061010030161515610148565b5061020030161515610141565b506104003016151561013a565b5061080030161515610133565b506110003016151561012c565b6101c081019081106001600160401b038211176104a757604052565b634e487b7160e01b5f52604160045260245ffd5b601f909101601f19168101906001600160401b038211908210176104a75760405256fe60806040526004361015610011575f80fd5b5f5f3560e01c80631313d24514610fe75780631911687a14610fc957806321d0ee7014610f74578063259982e514610f7457806326f5de6d14610ee1578063380cd38514610df85780633c07c3a114610dda57806344abab7b14610b8a57806346dfce9d14610b6c5780635221c1f014610b3d578063548d496f14610b03578063575e24b414610a4e5780636c2bbe7e146107235780636fe7e6eb146109d2578063715018a61461097857806378f9dfff146108925780638da5cb5b1461086b5780639050eed7146107985780639e33cdaa1461077a5780639f063efc14610723578063b47b2fb114610673578063b4bda5331461055e578063b6a8b0fa146101ec578063c4e833ce146103f5578063c501651a14610374578063dc4c90d31461032f578063dc98354e146102c0578063dd4863271461024e578063e1b4af69146101ec5763f2fde38b14610164575f80fd5b346101e95760203660031901126101e95761017d61109e565b6101856114c5565b6001600160a01b031680156101d55781546001600160a01b03198116821783556001600160a01b03167f8be0079c531659141344cd1fd0a4f28419497f9722a3daafe3b4186f6b6457e08380a380f35b631e4fbdf760e01b82526004829052602482fd5b80fd5b50346101e9576004906101fe366112f3565b5050507f00000000000000000000000000000000000000000000000000000000000000006001600160a01b03163303925061024291505057630a85dc2960e01b8152fd5b63570c108560e11b8152fd5b50346101e95760203660031901126101e9576040610160916004358152600f602052206102be60018060a01b038254169161028b6001820161134a565b906102ad60ff600a6009840154930154169260405195865260208601906111cc565b610120840152610140830190611227565bf35b50346101e95760e03660031901126101e9576102da61109e565b5060a03660231901126101e9576004906102f26112dd565b507f00000000000000000000000000000000000000000000000000000000000000006001600160a01b0316330361024257630a85dc2960e01b8152fd5b50346101e957806003193601126101e9576040517f00000000000000000000000000000000000000000000000000000000000000006001600160a01b03168152602090f35b50346101e95760603660031901126101e9576004356044356024356103976114c5565b61271082116103e657916060917f93777e77228c5b7297a9e128488c685d257db9d69d5cea54c6a706f5f3926f40938260095580600a5581600b5560405192835260208301526040820152a180f35b636acdab4d60e11b8452600484fd5b50346101e957806003193601126101e957806101c0916101a060405161041a81611173565b8281528260208201528260408201528260608201528260808201528260a08201528260c08201528260e0820152826101008201528261012082015282610140820152826101608201528261018082015201526040519061047982611173565b808252602082019181835260408101828152606082018381526080830184815260a0840185815260c085016001815260e0860190600182526101008701928884526101208801948986526101408901968a88526101608a01988b8a526101a06101808c019b8d8d52019b808d5260206040519e8f92835251151591015251151560408d015251151560608c015251151560808b015251151560a08a015251151560c089015251151560e08801525115156101008701525115156101208601525115156101408501525115156101608401525115156101808301525115156101a0820152f35b50346101e95760403660031901126101e95761057861109e565b610580611088565b60405163ac4a1c9560e01b8152600260048201526001600160a01b03928316602482015291166044820152818160648173__$91904be14b2f2d83076961c641e5a8c935$__5af4908115610668578291610646575b5090604051918291602083016020845282518091526020604085019301915b818110610602575050500390f35b91935091602060a0600192608087518051835284810151858401526040810151604084015260608101516060840152015160808201520194019101918493926105f4565b61066291503d8084833e61065a81836111ab565b8101906113ec565b5f6105d5565b6040513d84823e3d90fd5b50346101e9576101603660031901126101e95761068e61109e565b5060a03660231901126101e95760603660c31901126101e957610144356001600160401b03811161071f576106c79036906004016110b4565b50507f00000000000000000000000000000000000000000000000000000000000000006001600160a01b031633036107105760409081519063b47b2fb160e01b82526020820152f35b63570c108560e11b8152600490fd5b5080fd5b50346101e95760049061073536611274565b5050507f00000000000000000000000000000000000000000000000000000000000000006001600160a01b0316330393506102429250505057630a85dc2960e01b8152fd5b50346101e957806003193601126101e9576020600954604051908152f35b50346101e95760a03660031901126101e957806107b361109e565b6044356001600160a01b0381169190829003610867576084359160ff8316809303610865576107e06114c5565b73__$91904be14b2f2d83076961c641e5a8c935$__803b1561086157849260c491604051958694859363c3431d4560e01b85526002600486015260018060a01b0316602485015260243560448501526064840152606435608484015260a48301525af48015610668576108505750f35b8161085a916111ab565b6101e95780f35b8480fd5b505b5050fd5b50346101e957806003193601126101e957546040516001600160a01b039091168152602090f35b50346101e9576101203660031901126101e9576108ad61109e565b61010036602319011261071f57604051916108c78361118f565b6024356001600160a01b038116810361071f5783526044356001600160a01b038116810361071f5760208401526064356040840152608435606084015260a435608084015260c43560a084015260e43560c08401526101043560e084015260026001541461096957600260015561093d836114eb565b1561095a57602061094e84846118da565b60018055604051908152f35b632723fc7560e11b8152600490fd5b633ee5aeb560e01b8152600490fd5b50346101e957806003193601126101e9576109916114c5565b80546001600160a01b03198116825581906001600160a01b03167f8be0079c531659141344cd1fd0a4f28419497f9722a3daafe3b4186f6b6457e08280a380f35b50346101e9576101003660031901126101e9576109ed61109e565b5060a03660231901126101e957610a026112dd565b5060e4358060020b036101e9576004907f00000000000000000000000000000000000000000000000000000000000000006001600160a01b0316330361024257630a85dc2960e01b8152fd5b50346101e9576101403660031901126101e957610a6961109e565b9060a03660231901126101e95760603660c31901126101e957610124356001600160401b03811161071f57610aa29036906004016110b4565b50507f00000000000000000000000000000000000000000000000000000000000000006001600160a01b0316330361071057606062ffffff610ae38461151f565b906040939293519363ffffffff60e01b1684526020840152166040820152f35b50346101e95760203660031901126101e95760043590600d548210156101e9576020610b2e83611248565b90549060031b1c604051908152f35b50346101e95760203660031901126101e95760ff60406020926004358152600e84522054166040519015158152f35b50346101e957806003193601126101e9576020600b54604051908152f35b50346101e9573660031901610100811261071f5760a0136101e95760603660a31901126101e957610bb96113b0565b50610bc26113b0565b506004356001600160a01b03811690818103610dd657506024356001600160a01b0381169190819083810361086157508260c43591858312610da6575b505083469185600d54965b878110610c96575050604080516001600160a01b03958616602082018181529790961691810182905260608082018690528152610100975094959094610c516080826111ab565b5190209360405195610c628761118f565b865260208601526040850152606084015246608084015260a083015260c08201524260e08201526102be60405180926111cc565b610c9f81611248565b90549060031b1c468114610d9d5760405163b4bda53360e01b81526001600160a01b03888116600483015289166024820152908382604481305afa849281610d81575b50610cf35750506001905b01610c0a565b9583999398929791985b8951811015610d705787610d11828c61150b565b515114610d2057600101610cfd565b986060610d478b6020610d3e989e98610d51969c979d989e8661150b565b5101519361150b565b5101519086611983565b858111610d63575b5050600190610ced565b909550935060015f610d59565b509550956001919750979197610ced565b610d969193503d8087833e61065a81836111ab565b915f610ce2565b50600190610ced565b9093509150600160ff1b8114610dc25783039091905f80610bff565b634e487b7160e01b84526011600452602484fd5b8280fd5b50346101e957806003193601126101e9576020600c54604051908152f35b50346101e95760203660031901126101e957806060604051610e1981611144565b828152610e246113b0565b602082015282604082015201526004358152600f6020526040812060405190610e4c82611144565b80546001600160a01b03168252610e656001820161134a565b6020830190815260ff600a6009840154936040860194855201541660608401946004821015610ecd5750845260405192516001600160a01b0316835251610160936102be929091610eba9060208601906111cc565b5161012084015251610140830190611227565b634e487b7160e01b81526021600452602490fd5b50346101e9576101003660031901126101e95760405190610f018261118f565b6004356001600160a01b038116810361071f578252602435906001600160a01b03821682036101e9576020610f6a84848382015260443560408201526064356060820152608435608082015260a43560a082015260c43560c082015260e43560e08201526114eb565b6040519015158152f35b50346101e957600490610f86366110e1565b5050507f00000000000000000000000000000000000000000000000000000000000000006001600160a01b031633039150610242905057630a85dc2960e01b8152fd5b50346101e957806003193601126101e9576020600a54604051908152f35b503461108457604036600319011261108457611001611088565b6110096114c5565b73__$bce2662ec09944c50280375c5a91455adc$__90813b1561108457604051636c88762d60e01b815260048082018190523560248201526001600160a01b039091166044820152905f90829060649082905af480156110795761106b575080f35b61107791505f906111ab565b005b6040513d5f823e3d90fd5b5f80fd5b602435906001600160a01b038216820361108457565b600435906001600160a01b038216820361108457565b9181601f84011215611084578235916001600160401b038311611084576020838186019501011161108457565b90610160600319830112611084576004356001600160a01b0381168103611084579160a060231982011261108457602491608060c3198301126110845760c49161014435906001600160401b03821161108457611140916004016110b4565b9091565b608081019081106001600160401b0382111761115f57604052565b634e487b7160e01b5f52604160045260245ffd5b6101c081019081106001600160401b0382111761115f57604052565b61010081019081106001600160401b0382111761115f57604052565b90601f801991011681019081106001600160401b0382111761115f57604052565b60e0809160018060a01b03815116845260018060a01b03602082015116602085015260408101516040850152606081015160608501526080810151608085015260a081015160a085015260c081015160c08501520151910152565b9060048210156112345752565b634e487b7160e01b5f52602160045260245ffd5b600d5481101561126057600d5f5260205f2001905f90565b634e487b7160e01b5f52603260045260245ffd5b906101a0600319830112611084576004356001600160a01b0381168103611084579160a060231982011261108457602491608060c3198301126110845760c4916101443591610164359161018435906001600160401b03821161108457611140916004016110b4565b60c435906001600160a01b038216820361108457565b610120600319820112611084576004356001600160a01b0381168103611084579160a06023198301126110845760249160c4359160e4359161010435906001600160401b03821161108457611140916004016110b4565b906040516113578161118f565b82546001600160a01b0390811682526001840154166020820152600283015460408201526003830154606082015260048301546080820152600583015460a0820152600683015460c082015260079092015460e0830152565b604051906113bd8261118f565b5f60e0838281528260208201528260408201528260608201528260808201528260a08201528260c08201520152565b602081830312611084578051906001600160401b038211611084570181601f82011215611084578051906001600160401b03821161115f576040519261143860208460051b01856111ab565b828452602060a081860194028301019181831161108457602001925b828410611462575050505090565b60a084830312611084576040519060a08201908282106001600160401b0383111761115f5760a092602092604052865181528287015183820152604087015160408201526060870151606082015260808701516080820152815201930192611454565b5f546001600160a01b031633036114d857565b63118cdaa760e01b5f523360045260245ffd5b6060810151600954111590816114ff575090565b60a09150015146141590565b80518210156112605760209160051b010190565b6115276113b0565b506024356001600160a01b0381168103611084576001600160a01b039081169060443590811681036110845760e435926001600160a01b039190911690815f85126118ac575b505f46905f600d54905b81811061179c575050604080516001600160a01b03968716602082018181529690971691810182905260608082018590528152909594906115b96080826111ab565b519020604051946115c98661118f565b8552602085019586526040850196875260608501918252608085019046825260a0860193845260c08601524260e0860152611603856114eb565b61161e57506315d7892d60e21b965f96508695509350505050565b600a61162a86866118da565b946040519061163882611144565b6001600160a01b03908116825260208083018981524260408086019182525f60608088018281529c8252600f865290829020965187549087166001600160a01b03199182161788559351805160018901805491891691871691909117905594850151600288018054919097169416939093179094559282015160038501558101516004808501919091556080820151600585015560a0820151600685015560c0820151600785015560e0909101516008840155905160098301559551910194909390841015611234577f7f5a7010cc1dbd612d06113046cd9961ad912ee69ebbcbb8d20e528fba04409a9460809460ff80198354169116179055604051602081019061174482896111cc565b6101008152611755610120826111ab565b5190209551965197519251915190516040805194855260208501939093529183015260608201526001600160a01b039586169590941693a46315d7892d60e21b905f908190565b6117a581611248565b90549060031b1c4681146118a35760405163b4bda53360e01b81526001600160a01b03898116600483015288166024820152905f82604481305afa5f9281611887575b506117f95750506001905b01611577565b96919792945f9a949691999a5b8a51811015611873578861181a828d61150b565b51511461182957600101611806565b99606061184a8c6020611854959a989d979c969b999f9e610d3e908661150b565b510151908b611983565b848111611866575b50506001906117f3565b909450925060015f61185c565b5094929790959399985060019196506117f3565b61189c9193503d805f833e61065a81836111ab565b915f6117e8565b506001906117f3565b91509192600160ff1b81146118c6575f039290915f61156d565b634e487b7160e01b5f52601160045260245ffd5b604051636a88ed8f60e01b8152600480820152916118fc9060248401906111cc565b6001600160a01b03166101248201526020816101448173__$bce2662ec09944c50280375c5a91455adc$__5af4908115611079575f9161193a575090565b90506020813d602011611961575b81611955602093836111ab565b81010312611084575190565b3d9150611948565b919082018092116118c657565b919082039182116118c657565b909291925f93670de0b6b3a7640000821115611a3d57818302831592848204148317156118c657670de0b6b3a7640000900490600a840290848204600a148417156118c6576127106119d59204611969565b906119e08285611969565b81116119ed575b50505050565b83611a0493949596506119ff91611976565b611976565b9061271082029180830461271014901517156118c657611a295704905f8080806119e7565b634e487b7160e01b5f52601260045260245ffd5b505f9350505056fea26469706673582212201cc3d61637d2a0ce5750eb8d2831a3e69b20b0ccd2dbdaab58fcde1dd73f845164736f6c634300081e0033d7b6990105719101dabeb77144f2a3385c8033acd3af97e9423a695e81ad1eb5","linkReferences":{"src/libraries/AcrossIntegration.sol":{"AcrossIntegration":[{"start":493,"length":20},{"start":5354,"length":20},{"start":7667,"length":20}]},"src/libraries/PriceOracle.sol":{"PriceOracle":[{"start":2705,"length":20},{"start":3265,"length":20}]}}},"methodIdentifiers":{"addOracle(address,uint256,address,uint256,uint8)":"9050eed7","addSpokePool(uint256,address)":"1313d245","afterAddLiquidity(address,(address,address,uint24,int24,address),(int24,int24,int256,bytes32),int256,int256,bytes)":"9f063efc","afterDonate(address,(address,address,uint24,int24,address),uint256,uint256,bytes)":"e1b4af69","afterInitialize(address,(address,address,uint24,int24,address),uint160,int24)":"6fe7e6eb","afterRemoveLiquidity(address,(address,address,uint24,int24,address),(int24,int24,int256,bytes32),int256,int256,bytes)":"6c2bbe7e","afterSwap(address,(address,address,uint24,int24,address),(bool,int256,uint160),int256,bytes)":"b47b2fb1","analyzeArbitrageOpportunity((address,address,uint24,int24,address),(bool,int256,uint160))":"44abab7b","beforeAddLiquidity(address,(address,address,uint24,int24,address),(int24,int24,int256,bytes32),bytes)":"259982e5","beforeDonate(address,(address,address,uint24,int24,address),uint256,uint256,bytes)":"b6a8b0fa","beforeInitialize(address,(address,address,uint24,int24,address),uint160)":"dc98354e","beforeRemoveLiquidity(address,(address,address,uint24,int24,address),(int24,int24,int256,bytes32),bytes)":"21d0ee70","beforeSwap(address,(address,address,uint24,int24,address),(bool,int256,uint160),bytes)":"575e24b4","executeCrossChainArbitrage(address,(address,address,uint256,uint256,uint256,uint256,bytes32,uint256))":"78f9dfff","gasBufferBPS()":"3c07c3a1","getHookPermissions()":"c4e833ce","getMultiChainPrices(address,address)":"b4bda533","getPendingArbitrage(bytes32)":"380cd385","isChainSupported(uint256)":"5221c1f0","isProfitable((address,address,uint256,uint256,uint256,uint256,bytes32,uint256))":"26f5de6d","maxSlippageBPS()":"1911687a","minProfitBPS()":"9e33cdaa","owner()":"8da5cb5b","pendingArbitrages(bytes32)":"dd486327","poolManager()":"dc4c90d3","renounceOwnership()":"715018a6","supportedChains(uint256)":"548d496f","transferOwnership(address)":"f2fde38b","updateConfiguration(uint256,uint256,uint256)":"c501651a","userProfitShareBPS()":"46dfce9d"},"id":54}