{"abi":[{"type":"constructor","inputs":[{"name":"initialOwner","type":"address","internalType":"address"}],"stateMutability":"nonpayable"},{"type":"function","name":"HEALTH_CHECK_WINDOW","inputs":[],"outputs":[{"name":"","type":"uint256","internalType":"uint256"}],"stateMutability":"view"},{"type":"function","name":"HEARTBEAT_INTERVAL","inputs":[],"outputs":[{"name":"","type":"uint256","internalType":"uint256"}],"stateMutability":"view"},{"type":"function","name":"MAX_FAILURES_THRESHOLD","inputs":[],"outputs":[{"name":"","type":"uint256","internalType":"uint256"}],"stateMutability":"view"},{"type":"function","name":"addChain","inputs":[{"name":"chainId","type":"uint256","internalType":"uint256"},{"name":"spokePoolAddress","type":"address","internalType":"address"},{"name":"config","type":"tuple","internalType":"struct ChainManager.ChainConfig","components":[{"name":"isActive","type":"bool","internalType":"bool"},{"name":"gasLimit","type":"uint256","internalType":"uint256"},{"name":"maxGasPrice","type":"uint256","internalType":"uint256"},{"name":"confirmations","type":"uint256","internalType":"uint256"},{"name":"blockTime","type":"uint256","internalType":"uint256"},{"name":"spokePoolAddress","type":"address","internalType":"address"},{"name":"bridgeFee","type":"uint256","internalType":"uint256"},{"name":"minBridgeAmount","type":"uint256","internalType":"uint256"},{"name":"maxBridgeAmount","type":"uint256","internalType":"uint256"},{"name":"mevProtectionEnabled","type":"bool","internalType":"bool"}]}],"outputs":[],"stateMutability":"nonpayable"},{"type":"function","name":"chainConfigs","inputs":[{"name":"","type":"uint256","internalType":"uint256"}],"outputs":[{"name":"isActive","type":"bool","internalType":"bool"},{"name":"gasLimit","type":"uint256","internalType":"uint256"},{"name":"maxGasPrice","type":"uint256","internalType":"uint256"},{"name":"confirmations","type":"uint256","internalType":"uint256"},{"name":"blockTime","type":"uint256","internalType":"uint256"},{"name":"spokePoolAddress","type":"address","internalType":"address"},{"name":"bridgeFee","type":"uint256","internalType":"uint256"},{"name":"minBridgeAmount","type":"uint256","internalType":"uint256"},{"name":"maxBridgeAmount","type":"uint256","internalType":"uint256"},{"name":"mevProtectionEnabled","type":"bool","internalType":"bool"}],"stateMutability":"view"},{"type":"function","name":"chainStatuses","inputs":[{"name":"","type":"uint256","internalType":"uint256"}],"outputs":[{"name":"isHealthy","type":"bool","internalType":"bool"},{"name":"lastHeartbeat","type":"uint256","internalType":"uint256"},{"name":"avgGasPrice","type":"uint256","internalType":"uint256"},{"name":"pendingTransactions","type":"uint256","internalType":"uint256"},{"name":"failureCount","type":"uint256","internalType":"uint256"},{"name":"lastBlockNumber","type":"uint256","internalType":"uint256"}],"stateMutability":"view"},{"type":"function","name":"checkArbitrageFeasibility","inputs":[{"name":"fromChain","type":"uint256","internalType":"uint256"},{"name":"toChain","type":"uint256","internalType":"uint256"},{"name":"amount","type":"uint256","internalType":"uint256"}],"outputs":[{"name":"feasible","type":"bool","internalType":"bool"},{"name":"cost","type":"uint256","internalType":"uint256"}],"stateMutability":"view"},{"type":"function","name":"emergencyDeactivateChain","inputs":[{"name":"chainId","type":"uint256","internalType":"uint256"},{"name":"reason","type":"string","internalType":"string"}],"outputs":[],"stateMutability":"nonpayable"},{"type":"function","name":"getHealthyChains","inputs":[],"outputs":[{"name":"","type":"uint256[]","internalType":"uint256[]"}],"stateMutability":"view"},{"type":"function","name":"getOptimalChain","inputs":[{"name":"tokenIn","type":"address","internalType":"address"},{"name":"tokenOut","type":"address","internalType":"address"},{"name":"amount","type":"uint256","internalType":"uint256"}],"outputs":[{"name":"chainId","type":"uint256","internalType":"uint256"},{"name":"score","type":"uint256","internalType":"uint256"}],"stateMutability":"view"},{"type":"function","name":"getSupportedChains","inputs":[],"outputs":[{"name":"","type":"uint256[]","internalType":"uint256[]"}],"stateMutability":"view"},{"type":"function","name":"isSupportedChain","inputs":[{"name":"","type":"uint256","internalType":"uint256"}],"outputs":[{"name":"","type":"bool","internalType":"bool"}],"stateMutability":"view"},{"type":"function","name":"owner","inputs":[],"outputs":[{"name":"","type":"address","internalType":"address"}],"stateMutability":"view"},{"type":"function","name":"reactivateChain","inputs":[{"name":"chainId","type":"uint256","internalType":"uint256"}],"outputs":[],"stateMutability":"nonpayable"},{"type":"function","name":"renounceOwnership","inputs":[],"outputs":[],"stateMutability":"nonpayable"},{"type":"function","name":"reportChainFailure","inputs":[{"name":"chainId","type":"uint256","internalType":"uint256"}],"outputs":[],"stateMutability":"nonpayable"},{"type":"function","name":"supportedChains","inputs":[{"name":"","type":"uint256","internalType":"uint256"}],"outputs":[{"name":"","type":"uint256","internalType":"uint256"}],"stateMutability":"view"},{"type":"function","name":"transferOwnership","inputs":[{"name":"newOwner","type":"address","internalType":"address"}],"outputs":[],"stateMutability":"nonpayable"},{"type":"function","name":"updateChainConfig","inputs":[{"name":"chainId","type":"uint256","internalType":"uint256"},{"name":"config","type":"tuple","internalType":"struct ChainManager.ChainConfig","components":[{"name":"isActive","type":"bool","internalType":"bool"},{"name":"gasLimit","type":"uint256","internalType":"uint256"},{"name":"maxGasPrice","type":"uint256","internalType":"uint256"},{"name":"confirmations","type":"uint256","internalType":"uint256"},{"name":"blockTime","type":"uint256","internalType":"uint256"},{"name":"spokePoolAddress","type":"address","internalType":"address"},{"name":"bridgeFee","type":"uint256","internalType":"uint256"},{"name":"minBridgeAmount","type":"uint256","internalType":"uint256"},{"name":"maxBridgeAmount","type":"uint256","internalType":"uint256"},{"name":"mevProtectionEnabled","type":"bool","internalType":"bool"}]}],"outputs":[],"stateMutability":"nonpayable"},{"type":"function","name":"updateChainStatus","inputs":[{"name":"chainId","type":"uint256","internalType":"uint256"},{"name":"gasPrice","type":"uint256","internalType":"uint256"},{"name":"blockNumber","type":"uint256","internalType":"uint256"},{"name":"pendingTxs","type":"uint256","internalType":"uint256"}],"outputs":[],"stateMutability":"nonpayable"},{"type":"event","name":"ChainAdded","inputs":[{"name":"chainId","type":"uint256","indexed":true,"internalType":"uint256"},{"name":"spokePool","type":"address","indexed":false,"internalType":"address"}],"anonymous":false},{"type":"event","name":"ChainConfigUpdated","inputs":[{"name":"chainId","type":"uint256","indexed":true,"internalType":"uint256"}],"anonymous":false},{"type":"event","name":"ChainDeactivated","inputs":[{"name":"chainId","type":"uint256","indexed":true,"internalType":"uint256"},{"name":"reason","type":"string","indexed":false,"internalType":"string"}],"anonymous":false},{"type":"event","name":"ChainStatusUpdated","inputs":[{"name":"chainId","type":"uint256","indexed":true,"internalType":"uint256"},{"name":"isHealthy","type":"bool","indexed":false,"internalType":"bool"}],"anonymous":false},{"type":"event","name":"CrossChainMessageSent","inputs":[{"name":"fromChain","type":"uint256","indexed":true,"internalType":"uint256"},{"name":"toChain","type":"uint256","indexed":true,"internalType":"uint256"},{"name":"messageHash","type":"bytes32","indexed":false,"internalType":"bytes32"}],"anonymous":false},{"type":"event","name":"OwnershipTransferred","inputs":[{"name":"previousOwner","type":"address","indexed":true,"internalType":"address"},{"name":"newOwner","type":"address","indexed":true,"internalType":"address"}],"anonymous":false},{"type":"error","name":"InvalidChainId","inputs":[]},{"type":"error","name":"InvalidTokenAddress","inputs":[]},{"type":"error","name":"OwnableInvalidOwner","inputs":[{"name":"owner","type":"address","internalType":"address"}]},{"type":"error","name":"OwnableUnauthorizedAccount","inputs":[{"name":"account","type":"address","internalType":"address"}]}],"bytecode":{"object":"0x60806040523461062157604051601f611a7338819003918201601f19168301916001600160401b038311848410176105fa5780849260209460405283398101031261062157516001600160a01b0381169081900361062157801561060e575f80546001600160a01b03198116831782556001600160a01b0316907f8be0079c531659141344cd1fd0a4f28419497f9722a3daafe3b4186f6b6457e09080a36100a5610625565b60018152602081016207a1208152604082019164174876e80083526060810192600c845260808201600c815260a083015f815260c08401600a815260e0850190662386f26fc10000825261010086019268056bc75e2d6310000084526101208701946001865260035496680100000000000000008810156105fa5760018801806003558810156105e65760015f80516020611a538339815191529098018890555f8890527fabd6e7cb50984ff9c2f3e18a2660c3353dadf4e3291deeb275dae2cd1e44fe05805460ff199081168a1790915560209890985297517fcc69885fda6bcc1a4ace058b4a62bf5e179ea78fd58a1ccd71c22cc9b688792f805491151560ff16919098161787556102219896976009975b5160018a0155516002890181905599516003890155516004880155516005870180546001600160a01b039092166001600160a01b0319909216919091179055516006860155516007850155516008840155519101805460ff191691151560ff16919091179055565b600561022b610645565b91600183526020830190428252604084019060011c8152606084015f815260808501915f835260a08601935f855260015f52600260205261027f60405f2097511515889060ff801983541691151516179055565b516001870155516002860155516003850155516004840155519101556102a3610625565b6001815260208101621e848081526040820191633b9aca008352606081019260018452608082016001815260a083015f815260c084016005815260e085019066038d7ea4c680008252610100860192683635c9adc5dea0000084526101208701946001865260035496680100000000000000008810156105fa5760018801806003558810156105e65761a4b15f80516020611a538339815191529098018890555f979097527f6b9ac384f7f53524c5ccf3206e339a1858e866a93c0b5f8485b15dfdf97905e2805460ff19908116600190811790925560209190915297517f205bae445d323d41c2a70638ff83cb0c4359544903850978ded8943e052cf973805491151560ff16919099161788556103be98600997906101b9565b60056103c8610645565b91600183526020830190428252604084019060011c8152606084015f815260808501915f835260a08601935f855261a4b15f52600260205261041d60405f2097511515889060ff801983541691151516179055565b51600187015551600286015551600385015551600484015551910155610441610625565b6001815260208101621e848081526040820191633b9aca008352606081019260018452608082016002815260a083015f815260c084016005815260e085019066038d7ea4c680008252610100860192683635c9adc5dea0000084526101208701946001865260035496680100000000000000008810156105fa5760018801806003558810156105e6576121055f80516020611a538339815191529098018890555f979097527f88c3635684bf227e4f0401916bcd508d25456108be47808174ccf7961c8cbd95805460ff19908116600190811790925560209190915297517fb60096399359af1e390f4ccad595eafc702d6489db902b1fd8607f3867d438e1805491151560ff169190991617885561055c98600997906101b9565b6005610566610645565b91600183526020830190428252604084019060011c8152606084015f815260808501915f835260a08601935f85526121055f5260026020526105bb60405f2097511515889060ff801983541691151516179055565b516001870155516002860155516003850155516004840155519101556040516113ee90816106658239f35b634e487b7160e01b5f52603260045260245ffd5b634e487b7160e01b5f52604160045260245ffd5b631e4fbdf760e01b5f525f60045260245ffd5b5f80fd5b6040519061014082016001600160401b038111838210176105fa57604052565b6040519060c082016001600160401b038111838210176105fa5760405256fe60806040526004361015610011575f80fd5b5f3560e01c806309a0c56414610e075780630b8f2d7c14610c82578063346d527814610a8157806334d1c8fe14610a65578063389a8cc11461095157806344227fd1146109355780634cb497bb1461069c5780635153d4671461066d57806351bfbc32146105cd578063548d496f14610595578063566261841461057a5780635cc031f714610514578063715018a6146104bd578063811481cb146104235780638da5cb5b146103fc578063a41d86ab146103ca578063c4bffe2b14610346578063da8fd89d1461025e578063eb21aca61461017e5763f2fde38b146100f5575f80fd5b3461017a57602036600319011261017a5761010e610f6e565b6101166112b7565b6001600160a01b03168015610167575f80546001600160a01b03198116831782556001600160a01b0316907f8be0079c531659141344cd1fd0a4f28419497f9722a3daafe3b4186f6b6457e09080a3005b631e4fbdf760e01b5f525f60045260245ffd5b5f80fd5b3461017a57602036600319011261017a57600435805f52600460205260ff60405f2054161561024f57805f52600260205260405f206003600482016101c38154611024565b80915510156101ce57005b60ff198154169055807f27ac1f8582df24c5a440380c6f532a5e3c80caf348beb3f6484f310f2c6bbd0b60206040515f8152a27f93c594ab47fa718dfc2a6f8208fda1f33c050bce037587cb5ac11d97228a172f6060604051602081526011602082015270546f6f206d616e79206661696c7572657360781b6040820152a2005b633d23e4d160e11b5f5260045ffd5b3461017a57604036600319011261017a5760043560243567ffffffffffffffff811161017a573660238201121561017a5780600401359067ffffffffffffffff821161017a57366024838301011161017a576102b86112b7565b825f52600460205260ff60405f2054166102ce57005b60406024917f93c594ab47fa718dfc2a6f8208fda1f33c050bce037587cb5ac11d97228a172f93855f526001602052825f2060ff198154169055855f526002602052825f2060ff1981541690558083519485936020855282602086015201848401375f828201840152601f01601f19168101030190a2005b3461017a575f36600319011261017a5760405180602060035491828152019060035f527fc2575a0e9e593c00f959f8c92f12db2869c3395a3b0502d05e2516446f71f85b905f5b8181106103b4576103b0856103a481870382610f4c565b60405191829182610eda565b0390f35b825484526020909301926001928301920161038d565b3461017a57606036600319011261017a5760406103ee60443560243560043561109d565b825191151582526020820152f35b3461017a575f36600319011261017a575f546040516001600160a01b039091168152602090f35b3461017a57602036600319011261017a5760043561043f6112b7565b805f52600460205260ff60405f20541661045557005b5f818152600160208181526040808420805460ff199081168517909155600283528185208054909116841781556004810194909455429383019390935591519081527f27ac1f8582df24c5a440380c6f532a5e3c80caf348beb3f6484f310f2c6bbd0b9190a2005b3461017a575f36600319011261017a576104d56112b7565b5f80546001600160a01b0319811682556001600160a01b03167f8be0079c531659141344cd1fd0a4f28419497f9722a3daafe3b4186f6b6457e08280a3005b3461017a57602036600319011261017a576004355f52600260205260c060405f2060ff81541690600181015490600281015460038201549060056004840154930154936040519515158652602086015260408501526060840152608083015260a0820152f35b3461017a575f36600319011261017a57602060405160038152f35b3461017a57602036600319011261017a5760043560035481101561017a576105be602091610f9a565b90549060031b1c604051908152f35b3461017a57602036600319011261017a576004355f52600160205261014060405f2060ff8154169060018101549060028101546003820154600483015460018060a01b036005850154169060068501549260078601549460ff6009600889015498015416976040519915158a5260208a015260408901526060880152608087015260a086015260c085015260e08401526101008301521515610120820152f35b3461017a57602036600319011261017a576004355f526004602052602060ff60405f2054166040519015158152f35b3461017a5761018036600319011261017a576004356106b9610f84565b61014036604319011261017a57604051906106d382610f13565b604435801515810361017a5782526020820190606435825260408301916084358352606084019060a4358252608085019460c435865260e43560018060a01b038116810361017a5760a0820190815260c082019461010435865260e083016101243581526101008401906101443582526101643592831515840361017a5761012086019384526107616112b7565b8b5f52600460205260ff60405f20541661024f576001600160a01b0316978815610926576003549468010000000000000000861015610912577fd34413f9daf08c09e55b3ad5e2f7f18249f3ff26c061cb904f99597dd14ad53e9b60209b61088e998f6107d68a600160099c01600355610f9a565b81549060031b9083821b915f19901b1916179055805f5260048f5260405f20600160ff198254161790558d85525f5260018e5261082660405f209a5115158b9060ff801983541691151516179055565b5160018a0155516002890181905599516003890155516004880155516005870180546001600160a01b039092166001600160a01b0319909216919091179055516006860155516007850155516008840155519101805460ff191691151560ff16919091179055565b60056040519161089d83610f30565b6001835284830190428252604084019060011c8152606084015f815260808501915f835260a08601935f85528a5f52600289526108ed60405f2097511515889060ff801983541691151516179055565b51600187015551600286015551600385015551600484015551910155604051908152a2005b634e487b7160e01b5f52604160045260245ffd5b630f58058360e11b5f5260045ffd5b3461017a575f36600319011261017a576020604051610e108152f35b3461017a57608036600319011261017a57600435805f52600460205260ff60405f2054161561024f57805f52600260205260405f2060243560028201556044356005820155606435600382015542600182015560ff80825416916109d26109c06109ba83611032565b866112ea565b829060ff801983541691151516179055565b54161590811580911515036109e357005b7f27ac1f8582df24c5a440380c6f532a5e3c80caf348beb3f6484f310f2c6bbd0b60208492604051908152a2610a1557005b7f93c594ab47fa718dfc2a6f8208fda1f33c050bce037587cb5ac11d97228a172f60606040516020815260136020820152721219585b1d1a0818da1958dac819985a5b1959606a1b6040820152a2005b3461017a575f36600319011261017a57602060405161012c8152f35b3461017a57606036600319011261017a57610a9a610f6e565b50610aa3610f84565b506003545f908190604435825b828110610ac7576040848682519182526020820152f35b610ad081610f9a565b90549060031b1c805f52600260205260ff60405f20541615610c7957805f52600160205260ff60405f20541615610c7957805f52600160205260405f20604051610b1981610f13565b60ff825416151581526001820154916020820192835260028101546040830152600381015460608301526004810154916080810192835260018060a01b0360058301541660a082015261012060ff600960068501549460c08501958652600781015460e086015260088101546101008601520154161515910152835f526002602052633b9aca00610bbc610baf60405f20611032565b945160408601519061107d565b046103e8036103e88111610c515766038d7ea4c68000612710610be3610beb94518a61107d565b0404906112dd565b90518015610c6557608091610c039160640490611090565b91015180158015610c31575b5050868111610c25575b50506001905b01610ab0565b95509350600186610c19565b606482029182046064141715610c5157610c4a916112dd565b8780610c0f565b634e487b7160e01b5f52601160045260245ffd5b634e487b7160e01b5f52601260045260245ffd5b50600190610c1f565b3461017a5761016036600319011261017a5760043561014036602319011261017a57604051610cb081610f13565b602435801515810361017a57815260208101906044358252604081019160643583526060820160843581526080830160a435815260c43560018060a01b038116810361017a5760a0850190815260c0850160e435815260e08601916101043583526101008701936101243585526101443595861515870361017a576101208901968752610d3b6112b7565b8a5f52600460205260ff60405f2054161561024f57610de1996009988c5f526001602052610d7c60405f209b5115158c9060ff801983541691151516179055565b5160018b01555160028a0155516003890155516004880155516005870180546001600160a01b039092166001600160a01b0319909216919091179055516006860155516007850155516008840155519101805460ff191691151560ff16919091179055565b7f2f0fe16b8dabfdb51745ff852b1dcaa226ad7d2e21304816984b493982583ba05f80a2005b3461017a575f36600319011261017a57600354610e2381610fde565b905f905f5b818110610e71575050610e3a81610fde565b915f5b828110610e5257604051806103b08682610eda565b80610e5f60019284611010565b51610e6a8287611010565b5201610e3d565b610e7a81610f9a565b90549060031b1c805f52600260205260ff60405f20541680610ec4575b610ea5575b50600101610e28565b83610ebd91610eb76001949688611010565b52611024565b9290610e9c565b50805f52600160205260ff60405f205416610e97565b60206040818301928281528451809452019201905f5b818110610efd5750505090565b8251845260209384019390920191600101610ef0565b610140810190811067ffffffffffffffff82111761091257604052565b60c0810190811067ffffffffffffffff82111761091257604052565b90601f8019910116810190811067ffffffffffffffff82111761091257604052565b600435906001600160a01b038216820361017a57565b602435906001600160a01b038216820361017a57565b600354811015610fb25760035f5260205f2001905f90565b634e487b7160e01b5f52603260045260245ffd5b67ffffffffffffffff81116109125760051b60200190565b90610fe882610fc6565b610ff56040519182610f4c565b8281528092611006601f1991610fc6565b0190602036910137565b8051821015610fb25760209160051b010190565b5f198114610c515760010190565b9060405161103f81610f30565b60a06005829460ff81541615158452600181015460208501526002810154604085015260038101546060850152600481015460808501520154910152565b81810292918115918404141715610c5157565b91908201809211610c5157565b805f52600460205260ff60405f2054161580156112a0575b61128057805f52600260205260ff60405f205416158015611289575b61128057805f52600160205260405f2092604051906110ef82610f13565b60ff855416151582526001850154936020830194855260028601546040840152600386015460608401526004860154608084015260018060a01b0360058701541660a084015260068601549560c0840196875260078101549360e0810194855261012060ff600960088501549461010085019586520154161515910152815f52600160205260405f209360405161118581610f13565b855460ff9081161515825260018701546020830190815260028801546040840152600388015460608401526004880154608084015260058801546001600160a01b031660a0840152600688015460c0840152600788015460e0840152600888015461010084015260099097015416151561012090910152518310908115611275575b506112695761124161125f94612710611228611259956112649a519061107d565b049651905f526002602052600260405f2001549061107d565b9251905f526002602052600260405f2001549061107d565b92611090565b611090565b600191565b5050505050505f905f90565b90505182115f611207565b5050505f905f90565b50815f52600260205260ff60405f205416156110d1565b50815f52600460205260ff60405f205416156110b5565b5f546001600160a01b031633036112ca57565b63118cdaa760e01b5f523360045260245ffd5b91908203918211610c5157565b5f52600160205260405f2060405161130181610f13565b60ff825416151581526001820154602082015261012060ff600960028501549460408501958652600381015460608601526004810154608086015260018060a01b0360058201541660a0860152600681015460c0860152600781015460e0860152600881015461010086015201541615159101526102586113866020840151426112dd565b116113b25760408201519051106113ad576080600391015110156113a957600190565b5f90565b505f90565b50505f9056fea2646970667358221220024ac4becfa922e8b3868275d8fe166ebe05d6db5c97ba97e1904d6bfcc58dea64736f6c634300081a0033c2575a0e9e593c00f959f8c92f12db2869c3395a3b0502d05e2516446f71f85b","linkReferences":{}},"methodIdentifiers":{"HEALTH_CHECK_WINDOW()":"44227fd1","HEARTBEAT_INTERVAL()":"34d1c8fe","MAX_FAILURES_THRESHOLD()":"56626184","addChain(uint256,address,(bool,uint256,uint256,uint256,uint256,address,uint256,uint256,uint256,bool))":"4cb497bb","chainConfigs(uint256)":"51bfbc32","chainStatuses(uint256)":"5cc031f7","checkArbitrageFeasibility(uint256,uint256,uint256)":"a41d86ab","emergencyDeactivateChain(uint256,string)":"da8fd89d","getHealthyChains()":"09a0c564","getOptimalChain(address,address,uint256)":"346d5278","getSupportedChains()":"c4bffe2b","isSupportedChain(uint256)":"5153d467","owner()":"8da5cb5b","reactivateChain(uint256)":"811481cb","renounceOwnership()":"715018a6","reportChainFailure(uint256)":"eb21aca6","supportedChains(uint256)":"548d496f","transferOwnership(address)":"f2fde38b","updateChainConfig(uint256,(bool,uint256,uint256,uint256,uint256,address,uint256,uint256,uint256,bool))":"0b8f2d7c","updateChainStatus(uint256,uint256,uint256,uint256)":"389a8cc1"},"id":91}