{"abi":[{"type":"constructor","inputs":[{"name":"initialOwner","type":"address","internalType":"address"}],"stateMutability":"nonpayable"},{"type":"function","name":"activeOpportunities","inputs":[{"name":"","type":"bytes32","internalType":"bytes32"}],"outputs":[{"name":"tokenIn","type":"address","internalType":"address"},{"name":"tokenOut","type":"address","internalType":"address"},{"name":"amountIn","type":"uint256","internalType":"uint256"},{"name":"expectedProfitBPS","type":"uint256","internalType":"uint256"},{"name":"originChainId","type":"uint256","internalType":"uint256"},{"name":"targetChainId","type":"uint256","internalType":"uint256"},{"name":"routeHash","type":"bytes32","internalType":"bytes32"},{"name":"timestamp","type":"uint256","internalType":"uint256"}],"stateMutability":"view"},{"type":"function","name":"addOracle","inputs":[{"name":"token","type":"address","internalType":"address"},{"name":"chainId","type":"uint256","internalType":"uint256"},{"name":"feedAddress","type":"address","internalType":"address"},{"name":"heartbeat","type":"uint256","internalType":"uint256"},{"name":"decimals","type":"uint8","internalType":"uint8"}],"outputs":[],"stateMutability":"nonpayable"},{"type":"function","name":"config","inputs":[],"outputs":[{"name":"minProfitBPS","type":"uint256","internalType":"uint256"},{"name":"maxSlippageBPS","type":"uint256","internalType":"uint256"},{"name":"maxGasPrice","type":"uint256","internalType":"uint256"},{"name":"minLiquidity","type":"uint256","internalType":"uint256"},{"name":"maxPositionSize","type":"uint256","internalType":"uint256"},{"name":"mevProtectionEnabled","type":"bool","internalType":"bool"},{"name":"executionDelay","type":"uint256","internalType":"uint256"}],"stateMutability":"view"},{"type":"function","name":"detectOpportunities","inputs":[{"name":"tokenIn","type":"address","internalType":"address"},{"name":"tokenOut","type":"address","internalType":"address"},{"name":"amountIn","type":"uint256","internalType":"uint256"}],"outputs":[{"name":"opportunities","type":"tuple[]","internalType":"struct IArbitrageHook.ArbitrageOpportunity[]","components":[{"name":"tokenIn","type":"address","internalType":"address"},{"name":"tokenOut","type":"address","internalType":"address"},{"name":"amountIn","type":"uint256","internalType":"uint256"},{"name":"expectedProfitBPS","type":"uint256","internalType":"uint256"},{"name":"originChainId","type":"uint256","internalType":"uint256"},{"name":"targetChainId","type":"uint256","internalType":"uint256"},{"name":"routeHash","type":"bytes32","internalType":"bytes32"},{"name":"timestamp","type":"uint256","internalType":"uint256"}]}],"stateMutability":"view"},{"type":"function","name":"executeArbitrage","inputs":[{"name":"opportunity","type":"tuple","internalType":"struct IArbitrageHook.ArbitrageOpportunity","components":[{"name":"tokenIn","type":"address","internalType":"address"},{"name":"tokenOut","type":"address","internalType":"address"},{"name":"amountIn","type":"uint256","internalType":"uint256"},{"name":"expectedProfitBPS","type":"uint256","internalType":"uint256"},{"name":"originChainId","type":"uint256","internalType":"uint256"},{"name":"targetChainId","type":"uint256","internalType":"uint256"},{"name":"routeHash","type":"bytes32","internalType":"bytes32"},{"name":"timestamp","type":"uint256","internalType":"uint256"}]},{"name":"executor","type":"address","internalType":"address"}],"outputs":[{"name":"success","type":"bool","internalType":"bool"},{"name":"intentId","type":"bytes32","internalType":"bytes32"}],"stateMutability":"nonpayable"},{"type":"function","name":"getActiveOpportunity","inputs":[{"name":"opportunityId","type":"bytes32","internalType":"bytes32"}],"outputs":[{"name":"","type":"tuple","internalType":"struct IArbitrageHook.ArbitrageOpportunity","components":[{"name":"tokenIn","type":"address","internalType":"address"},{"name":"tokenOut","type":"address","internalType":"address"},{"name":"amountIn","type":"uint256","internalType":"uint256"},{"name":"expectedProfitBPS","type":"uint256","internalType":"uint256"},{"name":"originChainId","type":"uint256","internalType":"uint256"},{"name":"targetChainId","type":"uint256","internalType":"uint256"},{"name":"routeHash","type":"bytes32","internalType":"bytes32"},{"name":"timestamp","type":"uint256","internalType":"uint256"}]}],"stateMutability":"view"},{"type":"function","name":"getArbitrageStats","inputs":[],"outputs":[{"name":"","type":"tuple","internalType":"struct ArbitrageManager.ArbitrageStats","components":[{"name":"totalExecuted","type":"uint256","internalType":"uint256"},{"name":"totalProfit","type":"uint256","internalType":"uint256"},{"name":"successRate","type":"uint256","internalType":"uint256"},{"name":"averageExecutionTime","type":"uint256","internalType":"uint256"}]}],"stateMutability":"view"},{"type":"function","name":"getPrice","inputs":[{"name":"token","type":"address","internalType":"address"},{"name":"chainId","type":"uint256","internalType":"uint256"}],"outputs":[{"name":"priceResult","type":"uint256","internalType":"uint256"},{"name":"timestamp","type":"uint256","internalType":"uint256"}],"stateMutability":"view"},{"type":"function","name":"getUserArbitrageCount","inputs":[{"name":"user","type":"address","internalType":"address"}],"outputs":[{"name":"","type":"uint256","internalType":"uint256"}],"stateMutability":"view"},{"type":"function","name":"opportunityTimestamps","inputs":[{"name":"","type":"bytes32","internalType":"bytes32"}],"outputs":[{"name":"","type":"uint256","internalType":"uint256"}],"stateMutability":"view"},{"type":"function","name":"owner","inputs":[],"outputs":[{"name":"","type":"address","internalType":"address"}],"stateMutability":"view"},{"type":"function","name":"renounceOwnership","inputs":[],"outputs":[],"stateMutability":"nonpayable"},{"type":"function","name":"stats","inputs":[],"outputs":[{"name":"totalExecuted","type":"uint256","internalType":"uint256"},{"name":"totalProfit","type":"uint256","internalType":"uint256"},{"name":"successRate","type":"uint256","internalType":"uint256"},{"name":"averageExecutionTime","type":"uint256","internalType":"uint256"}],"stateMutability":"view"},{"type":"function","name":"transferOwnership","inputs":[{"name":"newOwner","type":"address","internalType":"address"}],"outputs":[],"stateMutability":"nonpayable"},{"type":"function","name":"updateConfig","inputs":[{"name":"newConfig","type":"tuple","internalType":"struct ArbitrageManager.ArbitrageConfig","components":[{"name":"minProfitBPS","type":"uint256","internalType":"uint256"},{"name":"maxSlippageBPS","type":"uint256","internalType":"uint256"},{"name":"maxGasPrice","type":"uint256","internalType":"uint256"},{"name":"minLiquidity","type":"uint256","internalType":"uint256"},{"name":"maxPositionSize","type":"uint256","internalType":"uint256"},{"name":"mevProtectionEnabled","type":"bool","internalType":"bool"},{"name":"executionDelay","type":"uint256","internalType":"uint256"}]}],"outputs":[],"stateMutability":"nonpayable"},{"type":"function","name":"userArbitrageCount","inputs":[{"name":"","type":"address","internalType":"address"}],"outputs":[{"name":"","type":"uint256","internalType":"uint256"}],"stateMutability":"view"},{"type":"function","name":"validateOpportunity","inputs":[{"name":"opportunity","type":"tuple","internalType":"struct IArbitrageHook.ArbitrageOpportunity","components":[{"name":"tokenIn","type":"address","internalType":"address"},{"name":"tokenOut","type":"address","internalType":"address"},{"name":"amountIn","type":"uint256","internalType":"uint256"},{"name":"expectedProfitBPS","type":"uint256","internalType":"uint256"},{"name":"originChainId","type":"uint256","internalType":"uint256"},{"name":"targetChainId","type":"uint256","internalType":"uint256"},{"name":"routeHash","type":"bytes32","internalType":"bytes32"},{"name":"timestamp","type":"uint256","internalType":"uint256"}]}],"outputs":[{"name":"isValid","type":"bool","internalType":"bool"},{"name":"reason","type":"string","internalType":"string"}],"stateMutability":"view"},{"type":"event","name":"ArbitrageConfigUpdated","inputs":[{"name":"minProfitBPS","type":"uint256","indexed":false,"internalType":"uint256"},{"name":"maxSlippageBPS","type":"uint256","indexed":false,"internalType":"uint256"},{"name":"userProfitShareBPS","type":"uint256","indexed":false,"internalType":"uint256"}],"anonymous":false},{"type":"event","name":"ArbitrageValidated","inputs":[{"name":"opportunityId","type":"bytes32","indexed":true,"internalType":"bytes32"},{"name":"isValid","type":"bool","indexed":false,"internalType":"bool"},{"name":"reason","type":"string","indexed":false,"internalType":"string"}],"anonymous":false},{"type":"event","name":"ExecutionCompleted","inputs":[{"name":"opportunityId","type":"bytes32","indexed":true,"internalType":"bytes32"},{"name":"actualProfit","type":"uint256","indexed":false,"internalType":"uint256"},{"name":"executionTime","type":"uint256","indexed":false,"internalType":"uint256"}],"anonymous":false},{"type":"event","name":"ExecutionStarted","inputs":[{"name":"opportunityId","type":"bytes32","indexed":true,"internalType":"bytes32"},{"name":"executor","type":"address","indexed":true,"internalType":"address"},{"name":"timestamp","type":"uint256","indexed":false,"internalType":"uint256"}],"anonymous":false},{"type":"event","name":"OpportunityDetected","inputs":[{"name":"opportunityId","type":"bytes32","indexed":true,"internalType":"bytes32"},{"name":"tokenIn","type":"address","indexed":true,"internalType":"address"},{"name":"tokenOut","type":"address","indexed":true,"internalType":"address"},{"name":"amountIn","type":"uint256","indexed":false,"internalType":"uint256"},{"name":"expectedProfitBPS","type":"uint256","indexed":false,"internalType":"uint256"},{"name":"targetChainId","type":"uint256","indexed":false,"internalType":"uint256"}],"anonymous":false},{"type":"event","name":"OwnershipTransferred","inputs":[{"name":"previousOwner","type":"address","indexed":true,"internalType":"address"},{"name":"newOwner","type":"address","indexed":true,"internalType":"address"}],"anonymous":false},{"type":"error","name":"InvalidHookData","inputs":[]},{"type":"error","name":"InvalidPriceData","inputs":[]},{"type":"error","name":"OracleNotFound","inputs":[]},{"type":"error","name":"OwnableInvalidOwner","inputs":[{"name":"owner","type":"address","internalType":"address"}]},{"type":"error","name":"OwnableUnauthorizedAccount","inputs":[{"name":"account","type":"address","internalType":"address"}]},{"type":"error","name":"ReentrancyGuardReentrantCall","inputs":[]},{"type":"error","name":"StalePrice","inputs":[]}],"bytecode":{"object":"0x60806040523461017857604051601f61198538819003918201601f19168301916001600160401b038311848410176101515780849260209460405283398101031261017857516001600160a01b038116908190036101785760015f55801561016557600180546001600160a01b0319811683179091556001600160a01b03167f8be0079c531659141344cd1fd0a4f28419497f9722a3daafe3b4186f6b6457e05f80a360405160e081016001600160401b038111828210176101515760059160c091604052603281526064602082015264174876e800604082015269021e19e0c9bab2400000606082015268056bc75e2d631000006080820152600160a082015201526032600455606460055564174876e80060065569021e19e0c9bab240000060075568056bc75e2d63100000600855600160ff1960095416176009556005600a55604051611808908161017d8239f35b634e487b7160e01b5f52604160045260245ffd5b631e4fbdf760e01b5f525f60045260245ffd5b5f80fdfe6080806040526004361015610012575f80fd5b5f905f3560e01c9081633a798e8914610cc257508063449e815d14610afc5780634508e2d614610a755780634a61e68a14610a3d57806366660731146109bf5780636b207a261461060b578063715018a6146105b057806379502c551461055b578063825826b1146104365780638da5cb5b1461040e5780639050eed7146103395780639dfd57781461030f578063a92a8bdb1461026d578063bdf4cf7e1461020d578063d80528ae146101d6578063ee2f4a06146101645763f2fde38b146100d9575f80fd5b34610161576020366003190112610161576100f2610cf6565b6100fa61179a565b6001600160a01b0316801561014d57600180546001600160a01b0319811683179091556001600160a01b03167f8be0079c531659141344cd1fd0a4f28419497f9722a3daafe3b4186f6b6457e08380a380f35b631e4fbdf760e01b82526004829052602482fd5b80fd5b5034610161576101203660031901126101615761018036610dc2565b6101043591906001600160a01b03831683036101d25760028254146101c3576101b16040936001926002855561130a565b91909255825191151582526020820152f35b633ee5aeb560e01b8252600482fd5b5080fd5b50346101615780600319360112610161576080600e54600f5460105460115491604051938452602084015260408301526060820152f35b50346101615761010036600319011261016157606060209161023661023136610dc2565b611001565b939091604051948593151584526040838501528051928391826040870152018585015e828201840152601f01601f19168101030190f35b50346101615760203660031901126101615760406101009161028d610f24565b506004358152600b602052206007604051916102a883610d83565b80546001600160a01b039081168452600182015416602084015260028101546040808501919091526003820154606085015260048201546080850152600582015460a0850152600682015460c085015291015460e0830152519061030d908290610d0c565bf35b50346101615760203660031901126101615760406020916004358152600c83522054604051908152f35b503461040a5760a036600319011261040a57610353610cf6565b6044356001600160a01b038116919082900361040a576084359160ff831680930361040a5761038061179a565b73__$91904be14b2f2d83076961c641e5a8c935$__803b1561040a575f9260c491604051958694859363c3431d4560e01b85526002600486015260018060a01b0316602485015260243560448501526064840152606435608484015260a48301525af480156103ff576103f1575080f35b6103fd91505f90610da0565b005b6040513d5f823e3d90fd5b5f80fd5b3461040a575f36600319011261040a576001546040516001600160a01b039091168152602090f35b3461040a5760e036600319011261040a5760405160e0810181811067ffffffffffffffff82111761054757604052600435815260208101906024358252604081019160443583526060820192606435845260808301608435815260a435801515810361040a5760a0850190815260c085019160c43583526104b561179a565b612710865111801561053b575b61052c577f93777e77228c5b7297a9e128488c685d257db9d69d5cea54c6a706f5f3926f409660609651958660045551948560055551600655516007555160085551151560ff80196009541691161760095551600a5560405191825260208201525f6040820152a1005b636acdab4d60e11b5f5260045ffd5b506127108551116104c2565b634e487b7160e01b5f52604160045260245ffd5b3461040a575f36600319011261040a5760e06004546005546006546007546008549060ff6009541692600a54946040519687526020870152604086015260608501526080840152151560a083015260c0820152f35b3461040a575f36600319011261040a576105c861179a565b600180546001600160a01b031981169091555f906001600160a01b03167f8be0079c531659141344cd1fd0a4f28419497f9722a3daafe3b4186f6b6457e08280a3005b3461040a57606036600319011261040a57610624610cf6565b602435906001600160a01b0382169081830361040a5760405163ac4a1c9560e01b8152600260048201526001600160a01b03821660248201819052604482810185905291929091355f8460648173__$91904be14b2f2d83076961c641e5a8c935$__5af49384156103ff575f9461099b575b506106a48495929551610f60565b5f935f93600454945b875181101561090b57466106c1828a610faf565b5151146109035760405163449e815d60e01b602082019081526001600160a01b038b1660248301524660448301525f9182919061070b81606481015b03601f198101835282610da0565b5190305afa61071861168b565b60405163449e815d60e01b602082019081526001600160a01b038e1660248301524660448301525f9182919061075181606481016106fd565b5190305afa9161075f61168b565b92816108fb575b50156108e85761078281602080610793945183010191016116ba565b5091602080825183010191016116ba565b5090670de0b6b3a7640000810290808204670de0b6b3a764000014901517156108d4576107e8916107c3916116e3565b60206107cf848c610faf565b51015160606107de858d610faf565b5101519188611701565b6107f2828a610faf565b518782101590816108c3575b50806108b7575b610815575b506001905b016106ad565b81976108b0916108276001948c610faf565b51516108338b8d610faf565b5151604051602081019189835288604083015260608201526060815261085a608082610da0565b519020906040519261086b84610d83565b8884528760208501528a6040850152606084015246608084015260a083015260c08201524260e082015261089f8288610faf565b526108aa8187610faf565b50610fd7565b969061080a565b50600854861115610805565b60409150015160075411158c6107fe565b634e487b7160e01b5f52601160045260245ffd5b50506107e8670de0b6b3a76400006107c3565b90508d610766565b60019061080f565b838761091681610f60565b915f5b82811061097157836040518091602082016020835281518091526020604084019201905f5b81811061094c575050500390f35b919350916020610100826109636001948851610d0c565b01940191019184939261093e565b8061097e60019284610faf565b516109898287610faf565b526109948186610faf565b5001610919565b6109b89194503d805f833e6109b08183610da0565b810190610e54565b9286610696565b3461040a575f36600319011261040a575f60606040516109de81610d67565b828152826020820152826040820152015260806040516109fd81610d67565b600e5490818152600f5460208201908152601054906040830191825260606011549301928352604051938452516020840152516040830152516060820152f35b3461040a57602036600319011261040a576001600160a01b03610a5e610cf6565b165f52600d602052602060405f2054604051908152f35b3461040a57602036600319011261040a576004355f52600b60205261010060405f2060018060a01b038154169060018060a01b0360018201541690600281015460038201546004830154906005840154926007600686015495015495604051978852602088015260408701526060860152608085015260a084015260c083015260e0820152f35b3461040a57604036600319011261040a57610b15610cf6565b60018060a01b03165f52600260205260405f206024355f5260205260405f2060405190610b4182610d67565b60018060a01b038154168252600260018201549160208401928352015460ff6040840191818116835260081c161580156060850152610cb3579151604051633fabe5a360e21b8152929060a090849060049082906001600160a01b03165afa9182156103ff575f935f93610c5d575b505f841315610c4e57610bc3834261167e565b905110610c3f575160ff166012811015610c055760120360ff81116108d457604092610bf1610bf7926117c1565b906116d0565b905b82519182526020820152f35b6012811115610c35576011190160ff81116108d457604092610c29610c2f926117c1565b906116e3565b90610bf9565b5060409190610bf9565b630cd5fa0760e11b5f5260045ffd5b63f45e167b60e01b5f5260045ffd5b9350915060a0833d60a011610cab575b81610c7a60a09383610da0565b8101031261040a57610c8b83611667565b506020830151610ca2608060608601519501611667565b50929184610bb0565b3d9150610c6d565b630b0a0e0d60e21b5f5260045ffd5b3461040a57602036600319011261040a576020906001600160a01b03610ce6610cf6565b165f52600d825260405f20548152f35b600435906001600160a01b038216820361040a57565b60e0809160018060a01b03815116845260018060a01b03602082015116602085015260408101516040850152606081015160608501526080810151608085015260a081015160a085015260c081015160c08501520151910152565b6080810190811067ffffffffffffffff82111761054757604052565b610100810190811067ffffffffffffffff82111761054757604052565b90601f8019910116810190811067ffffffffffffffff82111761054757604052565b61010090600319011261040a5760405190610ddc82610d83565b816004356001600160a01b038116810361040a5781526024356001600160a01b038116810361040a57602082015260443560408201526064356060820152608435608082015260a43560a082015260c43560c082015260e060e435910152565b67ffffffffffffffff81116105475760051b60200190565b60208183031261040a5780519067ffffffffffffffff821161040a570181601f8201121561040a57805190610e8882610e3c565b92610e966040519485610da0565b828452602060a081860194028301019181831161040a57602001925b828410610ec0575050505090565b60a08483031261040a576040519060a082019082821067ffffffffffffffff8311176105475760a092602092604052865181528287015183820152604087015160408201526060870151606082015260808701516080820152815201930192610eb2565b60405190610f3182610d83565b5f60e0838281528260208201528260408201528260608201528260808201528260a08201528260c08201520152565b90610f6a82610e3c565b610f776040519182610da0565b8281528092610f88601f1991610e3c565b01905f5b828110610f9857505050565b602090610fa3610f24565b82828501015201610f8c565b8051821015610fc35760209160051b010190565b634e487b7160e01b5f52603260045260245ffd5b5f1981146108d45760010190565b67ffffffffffffffff811161054757601f01601f191660200190565b6060810151600454116112c95760408101516008541061128b5760a0810180516001811490811561127f575b8115611273575b8115611268575b811561125d575b501561121e57815160209092015160405163ac4a1c9560e01b8152600260048201526001600160a01b039384166024820152921660448301525f8260648173__$91904be14b2f2d83076961c641e5a8c935$__5af49182156103ff575f92611202575b505f915f5b81518110156111fa576110bd8183610faf565b51518351146110ce576001016110aa565b60409293506110dc91610faf565b5101515b600754116111bc57516001810361116557506404a817c8005b6006541061113357600190604051611112604082610da0565b601181527056616c6964206f70706f7274756e69747960781b602082015290565b5f90604051611143604082610da0565b601281527108ec2e640e0e4d2c6ca40e8dede40d0d2ced60731b602082015290565b61a4b1810361117957506305f5e1006110f9565b612105810361118d57506305f5e1006110f9565b608981036111a157506406fc23ac006110f9565b600a036111b157620f42406110f9565b6402540be4006110f9565b505f906040516111cd604082610da0565b601d81527f496e73756666696369656e7420746172676574206c6971756964697479000000602082015290565b5050906110e0565b6112179192503d805f833e6109b08183610da0565b905f6110a5565b50505f90604051611230604082610da0565b601a81527f54617267657420636861696e206e6f7420737570706f72746564000000000000602082015290565b600a9150145f611042565b60898114915061103b565b61210581149150611034565b61a4b18114915061102d565b505f9060405161129c604082610da0565b601781527f506f736974696f6e2073697a6520746f6f206c61726765000000000000000000602082015290565b505f906040516112da604082610da0565b6013815272125b9cdd59999a58da595b9d081c1c9bd99a5d606a1b602082015290565b919082018092116108d457565b91604051602081019061131d8286610d0c565b610100815261132e61012082610da0565b51902091604051635efa67bf60e11b815261134c6004820186610d0c565b5f8161010481305afa9081156103ff575f905f926115dd575b50156115795750827fcef93195087d43adb9fce85475000d4902f077dace9417edb8906305e4be68d960806040516001815260406020820152600960408201526815985b1a59185d195960ba1b6060820152a260ff600954168061156e575b6114a2575b60018060a01b03169182817fbe45ea61cf82dc801bc3578a622fd22ece74dcd012eb6f9a32896c064a2468e66020604051428152a3807fdbdc2b57560624825df68376e983c3ce7741598d3f3f9018cb12d45aa5de37bf604060606001978497611434600e54610fd7565b600e555f52600d602052825f2061144b8154610fd7565b905501518151908152426020820152a2805f52600c6020525f60408120555f52600b6020525f6007604082208281558260018201558260028201558260038201558260048201558260058201558260068201550155565b825f52600c60205260405f2054156114dd57825f52600c6020526114cd60405f2054600a54906112fd565b4210156113c957505f9250829150565b505f918252600c60209081526040808420429055600b8252808420855181546001600160a01b03199081166001600160a01b03928316178355938701516001830180549095169116179092558401516002820155606084015160038201556080840151600482015560a0840151600582015560c0840151600682015560e09093015160079390930192909255908190565b50600a5415156113c4565b7fcef93195087d43adb9fce85475000d4902f077dace9417edb8906305e4be68d9929450602091506060906040519283915f83526040828401528051918291826040860152018484015e5f828201840152601f01601f19168101030190a25f905f90565b9150503d805f833e6115ef8183610da0565b81019060408183031261040a57805190811515820361040a5760208101519067ffffffffffffffff821161040a570182601f8201121561040a5780519061163582610fe5565b936116436040519586610da0565b8285526020838301011161040a57815f9260208093018387015e840101525f611365565b519069ffffffffffffffffffff8216820361040a57565b919082039182116108d457565b3d156116b5573d9061169c82610fe5565b916116aa6040519384610da0565b82523d5f602084013e565b606090565b919082604091031261040a576020825192015190565b818102929181159184041417156108d457565b81156116ed570490565b634e487b7160e01b5f52601260045260245ffd5b919392905f9481811115611791579061171d61172292856116d0565b6116e3565b90600a830290838204600a14841517156108d45761271061174392046112fd565b9061174e82846112fd565b811161175957505050565b8261176f9394955061176a9161167e565b61167e565b9061271082029180830461271014901517156108d45761178e916116e3565b90565b505f9450505050565b6001546001600160a01b031633036117ae57565b63118cdaa760e01b5f523360045260245ffd5b60ff16604d81116108d457600a0a9056fea2646970667358221220f2d8a615279f2958a5ea0d87ffe230989f1a672aa3fae23ac30353cbc761b24564736f6c634300081a0033","linkReferences":{"src/libraries/PriceOracle.sol":{"PriceOracle":[{"start":1279,"length":20},{"start":2032,"length":20},{"start":4607,"length":20}]}}},"methodIdentifiers":{"activeOpportunities(bytes32)":"4508e2d6","addOracle(address,uint256,address,uint256,uint8)":"9050eed7","config()":"79502c55","detectOpportunities(address,address,uint256)":"6b207a26","executeArbitrage((address,address,uint256,uint256,uint256,uint256,bytes32,uint256),address)":"ee2f4a06","getActiveOpportunity(bytes32)":"a92a8bdb","getArbitrageStats()":"66660731","getPrice(address,uint256)":"449e815d","getUserArbitrageCount(address)":"3a798e89","opportunityTimestamps(bytes32)":"9dfd5778","owner()":"8da5cb5b","renounceOwnership()":"715018a6","stats()":"d80528ae","transferOwnership(address)":"f2fde38b","updateConfig((uint256,uint256,uint256,uint256,uint256,bool,uint256))":"825826b1","userArbitrageCount(address)":"4a61e68a","validateOpportunity((address,address,uint256,uint256,uint256,uint256,bytes32,uint256))":"bdf4cf7e"},"id":90}