{"abi":[{"type":"function","name":"ARBITRUM_CHAIN_ID","inputs":[],"outputs":[{"name":"","type":"uint256","internalType":"uint256"}],"stateMutability":"view"},{"type":"function","name":"ARBITRUM_CONFIRMATIONS","inputs":[],"outputs":[{"name":"","type":"uint256","internalType":"uint256"}],"stateMutability":"view"},{"type":"function","name":"ARBITRUM_GAS_LIMIT","inputs":[],"outputs":[{"name":"","type":"uint256","internalType":"uint256"}],"stateMutability":"view"},{"type":"function","name":"ARBITRUM_SEPOLIA_CHAIN_ID","inputs":[],"outputs":[{"name":"","type":"uint256","internalType":"uint256"}],"stateMutability":"view"},{"type":"function","name":"BASE_CHAIN_ID","inputs":[],"outputs":[{"name":"","type":"uint256","internalType":"uint256"}],"stateMutability":"view"},{"type":"function","name":"BASE_CONFIRMATIONS","inputs":[],"outputs":[{"name":"","type":"uint256","internalType":"uint256"}],"stateMutability":"view"},{"type":"function","name":"BASE_GAS_LIMIT","inputs":[],"outputs":[{"name":"","type":"uint256","internalType":"uint256"}],"stateMutability":"view"},{"type":"function","name":"BASE_SEPOLIA_CHAIN_ID","inputs":[],"outputs":[{"name":"","type":"uint256","internalType":"uint256"}],"stateMutability":"view"},{"type":"function","name":"ETHEREUM_CHAIN_ID","inputs":[],"outputs":[{"name":"","type":"uint256","internalType":"uint256"}],"stateMutability":"view"},{"type":"function","name":"ETHEREUM_CONFIRMATIONS","inputs":[],"outputs":[{"name":"","type":"uint256","internalType":"uint256"}],"stateMutability":"view"},{"type":"function","name":"ETHEREUM_GAS_LIMIT","inputs":[],"outputs":[{"name":"","type":"uint256","internalType":"uint256"}],"stateMutability":"view"},{"type":"function","name":"ETH_ADDRESS","inputs":[],"outputs":[{"name":"","type":"address","internalType":"address"}],"stateMutability":"view"},{"type":"function","name":"OPTIMISM_CHAIN_ID","inputs":[],"outputs":[{"name":"","type":"uint256","internalType":"uint256"}],"stateMutability":"view"},{"type":"function","name":"OPTIMISM_CONFIRMATIONS","inputs":[],"outputs":[{"name":"","type":"uint256","internalType":"uint256"}],"stateMutability":"view"},{"type":"function","name":"OPTIMISM_GAS_LIMIT","inputs":[],"outputs":[{"name":"","type":"uint256","internalType":"uint256"}],"stateMutability":"view"},{"type":"function","name":"OPTIMISM_SEPOLIA_CHAIN_ID","inputs":[],"outputs":[{"name":"","type":"uint256","internalType":"uint256"}],"stateMutability":"view"},{"type":"function","name":"POLYGON_CHAIN_ID","inputs":[],"outputs":[{"name":"","type":"uint256","internalType":"uint256"}],"stateMutability":"view"},{"type":"function","name":"POLYGON_CONFIRMATIONS","inputs":[],"outputs":[{"name":"","type":"uint256","internalType":"uint256"}],"stateMutability":"view"},{"type":"function","name":"POLYGON_GAS_LIMIT","inputs":[],"outputs":[{"name":"","type":"uint256","internalType":"uint256"}],"stateMutability":"view"},{"type":"function","name":"POLYGON_MUMBAI_CHAIN_ID","inputs":[],"outputs":[{"name":"","type":"uint256","internalType":"uint256"}],"stateMutability":"view"},{"type":"function","name":"SEPOLIA_CHAIN_ID","inputs":[],"outputs":[{"name":"","type":"uint256","internalType":"uint256"}],"stateMutability":"view"},{"type":"function","name":"USDC_ARBITRUM","inputs":[],"outputs":[{"name":"","type":"address","internalType":"address"}],"stateMutability":"view"},{"type":"function","name":"USDC_BASE","inputs":[],"outputs":[{"name":"","type":"address","internalType":"address"}],"stateMutability":"view"},{"type":"function","name":"USDC_MAINNET","inputs":[],"outputs":[{"name":"","type":"address","internalType":"address"}],"stateMutability":"view"},{"type":"function","name":"USDC_OPTIMISM","inputs":[],"outputs":[{"name":"","type":"address","internalType":"address"}],"stateMutability":"view"},{"type":"function","name":"USDC_POLYGON","inputs":[],"outputs":[{"name":"","type":"address","internalType":"address"}],"stateMutability":"view"},{"type":"function","name":"WETH_ARBITRUM","inputs":[],"outputs":[{"name":"","type":"address","internalType":"address"}],"stateMutability":"view"},{"type":"function","name":"WETH_BASE","inputs":[],"outputs":[{"name":"","type":"address","internalType":"address"}],"stateMutability":"view"},{"type":"function","name":"WETH_MAINNET","inputs":[],"outputs":[{"name":"","type":"address","internalType":"address"}],"stateMutability":"view"},{"type":"function","name":"WETH_OPTIMISM","inputs":[],"outputs":[{"name":"","type":"address","internalType":"address"}],"stateMutability":"view"},{"type":"function","name":"WETH_POLYGON","inputs":[],"outputs":[{"name":"","type":"address","internalType":"address"}],"stateMutability":"view"}],"bytecode":{"object":"0x6080806040523460195761048a908161001e823930815050f35b5f80fdfe6080806040526004361015610012575f80fd5b5f3560e01c9081630e20416f146103e2575080630f54cdb6146103cc57806313173a4f146102ac5780631970eb9b1461031b5780631dac56d31461031b5780631f7394ac146103b65780631fab59fb1461039e57806320eb563214610388578063291dbed8146102ac5780633a1965c41461031b57806341d2c4cb1461035f5780634f3800751461033657806357cf17db14610320578063628cdbaa1461031b5780636db16c11146102f25780636df83ae6146102c95780637d4cbcac146102b157806381fbadad146102ac5780638bddde52146102ac57806399e480af146102835780639db1e6051461026b578063a25bc47914610253578063a5938adc1461022a578063a658066b14610201578063a734f06e146101d8578063c810b8ff14610171578063cdcdd548146101c1578063d0da02ae146101a9578063efc21e3f14610192578063f1b09fc1146101765763f4450bdd14610171575f80fd5b610437565b5f36600319011261018e57602060405162014a348152f35b5f80fd5b5f36600319011261018e5760206040516121058152f35b5f36600319011261018e576020604051620138818152f35b5f36600319011261018e57602060405161a4b18152f35b5f36600319011261018e57602060405173eeeeeeeeeeeeeeeeeeeeeeeeeeeeeeeeeeeeeeee8152f35b5f36600319011261018e57602060405173c02aaa39b223fe8d0a0e5c4f27ead9083c756cc28152f35b5f36600319011261018e5760206040517382af49447d8a07e3bd95bd0d56f35241523fbab18152f35b5f36600319011261018e57602060405162aa37dc8152f35b5f36600319011261018e57602060405162aa36a78152f35b5f36600319011261018e57602060405173af88d065e77c8cc2239327c5edb3a432268e58318152f35b610409565b5f36600319011261018e5760206040516207a1208152f35b5f36600319011261018e576020604051737f5c764cbc14f9669b88837ca1490cca17c316078152f35b5f36600319011261018e576020604051732791bca1f2de4661ed88a30c99a7a9449aa841748152f35b610421565b5f36600319011261018e576020604051600c8152f35b5f36600319011261018e57602060405173a0b86a33e6441a8cca877a7f0b5c5a67b82f6d7a8152f35b5f36600319011261018e57602060405173833589fcd6edb6e08f4c7c32d4f71b54bda029138152f35b5f36600319011261018e57602060405160898152f35b5f36600319011261018e57602060405162066eee8152f35b5f36600319011261018e576020604051601e8152f35b5f36600319011261018e576020604051600a8152f35b5f36600319011261018e5780737ceb23fd6bc0add59e62ac25578270cff1b9f61960209252f35b5f36600319011261018e576020604051621e84808152f35b5f36600319011261018e57602060405160018152f35b5f36600319011261018e576040516006602160991b018152602090f3fea264697066735822122015599b410743fe90cda63100ecbea312933ad3076dd7f6b3ef21beb4974153dc64736f6c634300081e0033","linkReferences":{}},"methodIdentifiers":{"ARBITRUM_CHAIN_ID()":"cdcdd548","ARBITRUM_CONFIRMATIONS()":"1970eb9b","ARBITRUM_GAS_LIMIT()":"8bddde52","ARBITRUM_SEPOLIA_CHAIN_ID()":"1fab59fb","BASE_CHAIN_ID()":"efc21e3f","BASE_CONFIRMATIONS()":"628cdbaa","BASE_GAS_LIMIT()":"81fbadad","BASE_SEPOLIA_CHAIN_ID()":"f1b09fc1","ETHEREUM_CHAIN_ID()":"1dac56d3","ETHEREUM_CONFIRMATIONS()":"57cf17db","ETHEREUM_GAS_LIMIT()":"7d4cbcac","ETH_ADDRESS()":"a734f06e","OPTIMISM_CHAIN_ID()":"0f54cdb6","OPTIMISM_CONFIRMATIONS()":"3a1965c4","OPTIMISM_GAS_LIMIT()":"13173a4f","OPTIMISM_SEPOLIA_CHAIN_ID()":"a25bc479","POLYGON_CHAIN_ID()":"20eb5632","POLYGON_CONFIRMATIONS()":"1f7394ac","POLYGON_GAS_LIMIT()":"291dbed8","POLYGON_MUMBAI_CHAIN_ID()":"d0da02ae","SEPOLIA_CHAIN_ID()":"9db1e605","USDC_ARBITRUM()":"99e480af","USDC_BASE()":"41d2c4cb","USDC_MAINNET()":"4f380075","USDC_OPTIMISM()":"6df83ae6","USDC_POLYGON()":"6db16c11","WETH_ARBITRUM()":"a5938adc","WETH_BASE()":"c810b8ff","WETH_MAINNET()":"a658066b","WETH_OPTIMISM()":"f4450bdd","WETH_POLYGON()":"0e20416f"},"id":60}