{"abi":[{"type":"constructor","inputs":[{"name":"initialOwner","type":"address","internalType":"address"},{"name":"_treasury","type":"address","internalType":"address"}],"stateMutability":"nonpayable"},{"type":"function","name":"MAX_BPS","inputs":[],"outputs":[{"name":"","type":"uint256","internalType":"uint256"}],"stateMutability":"view"},{"type":"function","name":"MIN_CLAIM_INTERVAL","inputs":[],"outputs":[{"name":"","type":"uint256","internalType":"uint256"}],"stateMutability":"view"},{"type":"function","name":"addSupportedToken","inputs":[{"name":"token","type":"address","internalType":"address"}],"outputs":[],"stateMutability":"nonpayable"},{"type":"function","name":"batchClaimRewards","inputs":[{"name":"tokens","type":"address[]","internalType":"address[]"}],"outputs":[],"stateMutability":"nonpayable"},{"type":"function","name":"claimRewards","inputs":[{"name":"token","type":"address","internalType":"address"}],"outputs":[],"stateMutability":"nonpayable"},{"type":"function","name":"config","inputs":[],"outputs":[{"name":"userShareBPS","type":"uint256","internalType":"uint256"},{"name":"protocolFeeBPS","type":"uint256","internalType":"uint256"},{"name":"lpIncentiveBPS","type":"uint256","internalType":"uint256"},{"name":"treasuryBPS","type":"uint256","internalType":"uint256"},{"name":"burnBPS","type":"uint256","internalType":"uint256"},{"name":"minDistribution","type":"uint256","internalType":"uint256"},{"name":"autoDistribute","type":"bool","internalType":"bool"}],"stateMutability":"view"},{"type":"function","name":"distributeProfit","inputs":[{"name":"opportunityId","type":"bytes32","internalType":"bytes32"}],"outputs":[],"stateMutability":"nonpayable"},{"type":"function","name":"emergencyWithdraw","inputs":[{"name":"token","type":"address","internalType":"address"},{"name":"amount","type":"uint256","internalType":"uint256"}],"outputs":[],"stateMutability":"nonpayable"},{"type":"function","name":"getAllClaimableRewards","inputs":[{"name":"user","type":"address","internalType":"address"}],"outputs":[{"name":"tokens","type":"address[]","internalType":"address[]"},{"name":"amounts","type":"uint256[]","internalType":"uint256[]"}],"stateMutability":"view"},{"type":"function","name":"getClaimableRewards","inputs":[{"name":"user","type":"address","internalType":"address"},{"name":"token","type":"address","internalType":"address"}],"outputs":[{"name":"amount","type":"uint256","internalType":"uint256"}],"stateMutability":"view"},{"type":"function","name":"getDistributionStats","inputs":[],"outputs":[{"name":"totalGenerated","type":"uint256","internalType":"uint256"},{"name":"totalDist","type":"uint256","internalType":"uint256"},{"name":"userCount","type":"uint256","internalType":"uint256"}],"stateMutability":"view"},{"type":"function","name":"getSupportedTokens","inputs":[],"outputs":[{"name":"","type":"address[]","internalType":"address[]"}],"stateMutability":"view"},{"type":"function","name":"isTokenSupported","inputs":[{"name":"","type":"address","internalType":"address"}],"outputs":[{"name":"","type":"bool","internalType":"bool"}],"stateMutability":"view"},{"type":"function","name":"owner","inputs":[],"outputs":[{"name":"","type":"address","internalType":"address"}],"stateMutability":"view"},{"type":"function","name":"pause","inputs":[],"outputs":[],"stateMutability":"nonpayable"},{"type":"function","name":"paused","inputs":[],"outputs":[{"name":"","type":"bool","internalType":"bool"}],"stateMutability":"view"},{"type":"function","name":"profitRecords","inputs":[{"name":"","type":"bytes32","internalType":"bytes32"}],"outputs":[{"name":"opportunityId","type":"bytes32","internalType":"bytes32"},{"name":"user","type":"address","internalType":"address"},{"name":"tokenIn","type":"address","internalType":"address"},{"name":"tokenOut","type":"address","internalType":"address"},{"name":"totalProfit","type":"uint256","internalType":"uint256"},{"name":"userShare","type":"uint256","internalType":"uint256"},{"name":"protocolFee","type":"uint256","internalType":"uint256"},{"name":"timestamp","type":"uint256","internalType":"uint256"},{"name":"distributed","type":"bool","internalType":"bool"}],"stateMutability":"view"},{"type":"function","name":"recordProfit","inputs":[{"name":"opportunityId","type":"bytes32","internalType":"bytes32"},{"name":"user","type":"address","internalType":"address"},{"name":"tokenIn","type":"address","internalType":"address"},{"name":"tokenOut","type":"address","internalType":"address"},{"name":"totalProfit","type":"uint256","internalType":"uint256"}],"outputs":[],"stateMutability":"nonpayable"},{"type":"function","name":"renounceOwnership","inputs":[],"outputs":[],"stateMutability":"nonpayable"},{"type":"function","name":"rewardPools","inputs":[{"name":"","type":"address","internalType":"address"}],"outputs":[{"name":"token","type":"address","internalType":"address"},{"name":"totalRewards","type":"uint256","internalType":"uint256"},{"name":"distributedRewards","type":"uint256","internalType":"uint256"},{"name":"pendingRewards","type":"uint256","internalType":"uint256"}],"stateMutability":"view"},{"type":"function","name":"supportedTokens","inputs":[{"name":"","type":"uint256","internalType":"uint256"}],"outputs":[{"name":"","type":"address","internalType":"address"}],"stateMutability":"view"},{"type":"function","name":"totalDistributed","inputs":[],"outputs":[{"name":"","type":"uint256","internalType":"uint256"}],"stateMutability":"view"},{"type":"function","name":"totalProfitsGenerated","inputs":[],"outputs":[{"name":"","type":"uint256","internalType":"uint256"}],"stateMutability":"view"},{"type":"function","name":"totalUsers","inputs":[],"outputs":[{"name":"","type":"uint256","internalType":"uint256"}],"stateMutability":"view"},{"type":"function","name":"transferOwnership","inputs":[{"name":"newOwner","type":"address","internalType":"address"}],"outputs":[],"stateMutability":"nonpayable"},{"type":"function","name":"treasury","inputs":[],"outputs":[{"name":"","type":"address","internalType":"address"}],"stateMutability":"view"},{"type":"function","name":"unpause","inputs":[],"outputs":[],"stateMutability":"nonpayable"},{"type":"function","name":"updateConfiguration","inputs":[{"name":"newConfig","type":"tuple","internalType":"struct ProfitDistributor.DistributionConfig","components":[{"name":"userShareBPS","type":"uint256","internalType":"uint256"},{"name":"protocolFeeBPS","type":"uint256","internalType":"uint256"},{"name":"lpIncentiveBPS","type":"uint256","internalType":"uint256"},{"name":"treasuryBPS","type":"uint256","internalType":"uint256"},{"name":"burnBPS","type":"uint256","internalType":"uint256"},{"name":"minDistribution","type":"uint256","internalType":"uint256"},{"name":"autoDistribute","type":"bool","internalType":"bool"}]}],"outputs":[],"stateMutability":"nonpayable"},{"type":"function","name":"updateTreasury","inputs":[{"name":"newTreasury","type":"address","internalType":"address"}],"outputs":[],"stateMutability":"nonpayable"},{"type":"function","name":"userPendingRewards","inputs":[{"name":"","type":"address","internalType":"address"}],"outputs":[{"name":"","type":"uint256","internalType":"uint256"}],"stateMutability":"view"},{"type":"function","name":"userTotalProfits","inputs":[{"name":"","type":"address","internalType":"address"}],"outputs":[{"name":"","type":"uint256","internalType":"uint256"}],"stateMutability":"view"},{"type":"event","name":"ConfigurationUpdated","inputs":[{"name":"userShareBPS","type":"uint256","indexed":false,"internalType":"uint256"},{"name":"protocolFeeBPS","type":"uint256","indexed":false,"internalType":"uint256"},{"name":"lpIncentiveBPS","type":"uint256","indexed":false,"internalType":"uint256"}],"anonymous":false},{"type":"event","name":"OwnershipTransferred","inputs":[{"name":"previousOwner","type":"address","indexed":true,"internalType":"address"},{"name":"newOwner","type":"address","indexed":true,"internalType":"address"}],"anonymous":false},{"type":"event","name":"Paused","inputs":[{"name":"account","type":"address","indexed":false,"internalType":"address"}],"anonymous":false},{"type":"event","name":"ProfitDistributed","inputs":[{"name":"opportunityId","type":"bytes32","indexed":true,"internalType":"bytes32"},{"name":"user","type":"address","indexed":true,"internalType":"address"},{"name":"token","type":"address","indexed":false,"internalType":"address"},{"name":"amount","type":"uint256","indexed":false,"internalType":"uint256"}],"anonymous":false},{"type":"event","name":"ProfitRecorded","inputs":[{"name":"opportunityId","type":"bytes32","indexed":true,"internalType":"bytes32"},{"name":"user","type":"address","indexed":true,"internalType":"address"},{"name":"totalProfit","type":"uint256","indexed":false,"internalType":"uint256"},{"name":"userShare","type":"uint256","indexed":false,"internalType":"uint256"}],"anonymous":false},{"type":"event","name":"RewardsClaimed","inputs":[{"name":"user","type":"address","indexed":true,"internalType":"address"},{"name":"token","type":"address","indexed":true,"internalType":"address"},{"name":"amount","type":"uint256","indexed":false,"internalType":"uint256"}],"anonymous":false},{"type":"event","name":"Unpaused","inputs":[{"name":"account","type":"address","indexed":false,"internalType":"address"}],"anonymous":false},{"type":"error","name":"EnforcedPause","inputs":[]},{"type":"error","name":"ExpectedPause","inputs":[]},{"type":"error","name":"InsufficientProfit","inputs":[]},{"type":"error","name":"InvalidHookData","inputs":[]},{"type":"error","name":"InvalidTokenAddress","inputs":[]},{"type":"error","name":"OwnableInvalidOwner","inputs":[{"name":"owner","type":"address","internalType":"address"}]},{"type":"error","name":"OwnableUnauthorizedAccount","inputs":[{"name":"account","type":"address","internalType":"address"}]},{"type":"error","name":"ReentrancyGuardReentrantCall","inputs":[]},{"type":"error","name":"SafeERC20FailedOperation","inputs":[{"name":"token","type":"address","internalType":"address"}]}],"bytecode":{"object":"0x60806040523461018d57604051601f61184338819003918201601f19168301916001600160401b0383118484101761016657808492604094855283398101031261018d57610058602061005183610191565b9201610191565b60015f55906001600160a01b0316801561017a57600180546001600160a01b0319811683179091556001600160a01b03167f8be0079c531659141344cd1fd0a4f28419497f9722a3daafe3b4186f6b6457e05f80a3601280546001600160a01b0319166001600160a01b039290921691909117905560405160e081016001600160401b038111828210176101665760019160c091604052611b5881526107d060208201526101f46040820152610190606082015260646080820152662386f26fc1000060a08201520152611b586002556107d06003556101f46004556101906005556064600655662386f26fc10000600755600160ff19600854161760085560405161169d90816101a68239f35b634e487b7160e01b5f52604160045260245ffd5b631e4fbdf760e01b5f525f60045260245ffd5b5f80fd5b51906001600160a01b038216820361018d5756fe6080806040526004361015610012575f80fd5b5f3560e01c9081631afd86fd146112cd5750806324b97c461461129c57806336a1e0e0146111fd578063372d94481461119b5780633f4ba83a1461112d5780635c975abb1461110857806361d027b3146110e05780636553f210146110c35780636d69fcaf14611007578063715018a614610fac57806375151b6314610f6f57806379502c5514610f1a5780637f51bb1f14610ed35780638456cb5914610e725780638da5cb5b14610e4a578063928890d514610e2657806395ccea6714610de7578063bff1f9e114610dca578063c625562614610d88578063c96ad38014610c4d578063cd6606e214610c31578063ced93f6114610a83578063d3c7c2c7146109ee578063d894f99c146108e6578063ef5cfb8c1461071b578063efca2eed146106fe578063f2fde38b14610678578063f56f4f0f14610644578063fb2060c4146101c9578063fc9d7711146101915763fd967f4714610171575f80fd5b3461018d575f36600319011261018d5760206040516127108152f35b5f80fd5b3461018d57602036600319011261018d576001600160a01b036101b2611301565b165f52600b602052602060405f2054604051908152f35b3461018d5760a036600319011261018d576004356101e5611317565b6044356001600160a01b0381169081900361018d576064356001600160a01b038116919082900361018d5760843561021b6114a7565b610223611649565b801561063557845f52600960205260405f20546105f0576127106102496002548361146d565b049361271061025a6003548461146d565b049361271061026b6004548561146d565b04916102796005548561146d565b5060405161012081019080821067ffffffffffffffff8311176105dc578996600892604052878252602082019360018060a01b03169889855260408301918252606083018681526080840189815260a08501918d835260c0860193845260e08601944286526101008701985f8a528d5f52600960205260405f209751885560018060a01b03905116600188019060018060a01b03166001600160601b0360a01b82541617905560018060a01b03905116600287019060018060a01b03166001600160601b0360a01b82541617905560018060a01b03905116600386019060018060a01b03166001600160601b0360a01b825416179055516004850155516005840155516006830155516007820155019051151560ff80198354169116179055845f52600a60205260405f2054156105c9575b845f52600a60205260405f206103c28482546113b7565b9055845f52600b60205260405f206103db8782546113b7565b90556103e983600f546113b7565b600f55805f52600e60205260ff60405f2054161561057e575b805f52600c60205260405f206001810161041d8882546113b7565b9055851561056957600490865f520160205260405f2061043e8782546113b7565b90555b805f52600e60205260ff60405f205416156104e9575b916040917fb6230a00ddf3f7e480d6ccb1c7db75b7d976d3a14a099190db0b4351fe6e3f55935f52600c6020526104a66003845f206001810161049b8582546113b7565b9055019182546113b7565b90558151908152856020820152a360ff6008541690816104dc575b506104cd575b60015f55005b6104d6906114c5565b806104c7565b90506007541115826104c1565b9250303b1561018d57604051636d69fcaf60e01b815260048101849052915f8360248183305af191821561055e5787947fb6230a00ddf3f7e480d6ccb1c7db75b7d976d3a14a099190db0b4351fe6e3f559460409461054e575b509193509150610457565b5f61055891611359565b89610543565b6040513d5f823e3d90fd5b6003016105778782546113b7565b9055610441565b9250303b1561018d57604051636d69fcaf60e01b815260048101849052925f8460248183305af193841561055e5787946105b9575b50610402565b5f6105c391611359565b876105b3565b6105d46011546113c4565b6011556103ab565b634e487b7160e01b5f52604160045260245ffd5b60405162461bcd60e51b815260206004820152601760248201527f50726f66697420616c7265616479207265636f726465640000000000000000006044820152606490fd5b632723fc7560e11b5f5260045ffd5b3461018d57604036600319011261018d576020610670610662611301565b61066a611317565b90611422565b604051908152f35b3461018d57602036600319011261018d57610691611301565b610699611480565b6001600160a01b031680156106eb57600180546001600160a01b0319811683179091556001600160a01b03167f8be0079c531659141344cd1fd0a4f28419497f9722a3daafe3b4186f6b6457e05f80a3005b631e4fbdf760e01b5f525f60045260245ffd5b3461018d575f36600319011261018d576020601054604051908152f35b3461018d57602036600319011261018d57610734611301565b61073c6114a7565b610744611649565b6001600160a01b03165f818152600e602052604090205460ff16156108d7575f818152600c6020908152604080832033845260048101928390529220549190821561089c57600582019160018060a01b0333165f528260205260405f2054610e10810180911161084b57421061085f5760029160018060a01b0333165f526020525f6040812055016107d78382546113b7565b9055335f90815260209182526040808220429055600b9092522080548281039190821161084b575561080b816010546113b7565b6010556108198133846115ba565b6040519081527f9310ccfcb8de723f578a9e4282ea9f521f05ae40dc08f3068dfad528a65ee3c760203392a360015f55005b634e487b7160e01b5f52601160045260245ffd5b60405162461bcd60e51b8152602060048201526015602482015274436c61696d20636f6f6c646f776e2061637469766560581b6044820152606490fd5b60405162461bcd60e51b81526020600482015260136024820152724e6f207265776172647320746f20636c61696d60681b6044820152606490fd5b630f58058360e11b5f5260045ffd5b3461018d57602036600319011261018d5760043567ffffffffffffffff811161018d573660238201121561018d57806004013567ffffffffffffffff811161018d576024820191602436918360051b01011161018d5733915f5b82811061094957005b6001600160a01b0361096461095f8386866113fe565b61140e565b165f52600c602052600460405f2001845f5260205260405f205461098b575b600101610940565b61099961095f8285856113fe565b90303b1561018d57604051633bd73ee360e21b81526001600160a01b0390921660048301525f8260248183305af191821561055e576001926109de575b509050610983565b5f6109e891611359565b856109d6565b3461018d575f36600319011261018d57604051806020600d54918281520190600d5f527fd7b6990105719101dabeb77144f2a3385c8033acd3af97e9423a695e81ad1eb5905f5b818110610a6457610a6085610a4c81870382611359565b60405191829160208352602083019061137b565b0390f35b82546001600160a01b0316845260209093019260019283019201610a35565b3461018d57602036600319011261018d57610a9c611301565b600d54906001600160a01b03165f805b838110610bdf5750610abd816113d2565b92610acb6040519485611359565b818452601f19610ada836113d2565b01366020860137610b03610aed836113d2565b92610afb6040519485611359565b8084526113d2565b602083019390601f19013685375f905f5b838110610b7057610b37878787602060405194859460408652604086019061137b565b918483038286015251918281520191905f5b818110610b57575050500390f35b8251845285945060209384019390920191600101610b49565b610b798161132d565b60018060a01b0391549060031b1c16805f52600c602052600460405f2001835f5260205260405f20549081610bb3575b5050600101610b14565b93610bd79160019395610bc6838c6113ea565b52610bd182896113ea565b526113c4565b929088610ba9565b610be88161132d565b60018060a01b0391549060031b1c165f52600c602052600460405f2001835f5260205260405f2054610c1d575b600101610aac565b90610c296001916113c4565b919050610c15565b3461018d575f36600319011261018d576020604051610e108152f35b3461018d5760e036600319011261018d5760405160e0810181811067ffffffffffffffff8211176105dc57604052600435815260208101602435815260408201906044358252606083019260643584526080810193608435855260a0820160a435815260c43590811515820361018d5760c08401918252610ccc611480565b612710610cfd610cf5610ced610ce588518a51906113b7565b8a51906113b7565b8651906113b7565b8951906113b7565b03610d79577fd1df9ea585fa96cacfd37b45876312d2c04c0f6bf740539becffbec7e81822be96610d749451958660025551968760035551938460045551600555516006555160075551151560ff801960085416911617600855604051938493846040919493926060820195825260208201520152565b0390a1005b636acdab4d60e11b5f5260045ffd5b3461018d57602036600319011261018d57600435600d5481101561018d57610db160209161132d565b905460405160039290921b1c6001600160a01b03168152f35b3461018d575f36600319011261018d576020601154604051908152f35b3461018d57604036600319011261018d57610e24610e03611301565b610e0b611480565b601254602435916001600160a01b0391821691166115ba565b005b3461018d57602036600319011261018d57610e3f6114a7565b6104c76004356114c5565b3461018d575f36600319011261018d576001546040516001600160a01b039091168152602090f35b3461018d575f36600319011261018d57610e8a611480565b610e92611649565b6001805460ff60a01b1916600160a01b1790556040513381527f62e78cea01bee320cd4e420270b5ea74000d11b0c9f74754ebdbfc544b05a25890602090a1005b3461018d57602036600319011261018d57610eec611301565b610ef4611480565b6001600160a01b031680156108d7576001600160601b0360a01b60125416176012555f80f35b3461018d575f36600319011261018d5760e0600254600354600454600554600654906007549260ff6008541694604051968752602087015260408601526060850152608084015260a0830152151560c0820152f35b3461018d57602036600319011261018d576001600160a01b03610f90611301565b165f52600e602052602060ff60405f2054166040519015158152f35b3461018d575f36600319011261018d57610fc4611480565b600180546001600160a01b031981169091555f906001600160a01b03167f8be0079c531659141344cd1fd0a4f28419497f9722a3daafe3b4186f6b6457e08280a3005b3461018d57602036600319011261018d57611020611301565b611028611480565b6001600160a01b031680156108d757805f52600e60205260ff60405f2054161561104e57005b600d54680100000000000000008110156105dc578060016110729201600d5561132d565b81546001600160a01b0360039290921b91821b19169083901b1790555f818152600e60209081526040808320805460ff19166001179055600c909152902080546001600160a01b0319169091179055005b3461018d575f36600319011261018d576020600f54604051908152f35b3461018d575f36600319011261018d576012546040516001600160a01b039091168152602090f35b3461018d575f36600319011261018d57602060ff60015460a01c166040519015158152f35b3461018d575f36600319011261018d57611145611480565b60015460ff8160a01c161561118c5760ff60a01b19166001556040513381527f5db9ee0a495bf2e6ff9c91a7834c1ba4fdd244a5e8aa4e537bd38aeae4b073aa90602090a1005b638dfc202b60e01b5f5260045ffd5b3461018d57602036600319011261018d576001600160a01b036111bc611301565b165f52600c602052608060405f2060018060a01b03815416906001810154906003600282015491015491604051938452602084015260408301526060820152f35b3461018d57602036600319011261018d576004355f52600960205261012060405f2080549060018060a01b036001820154169060018060a01b0360028201541660018060a01b03600383015416600483015460058401549160068501549360ff600860078801549701541696604051988952602089015260408801526060870152608086015260a085015260c084015260e08301521515610100820152f35b3461018d575f36600319011261018d57600f5460105460115460408051938452602084019290925290820152606090f35b3461018d57602036600319011261018d576020906001600160a01b036112f1611301565b165f52600a825260405f20548152f35b600435906001600160a01b038216820361018d57565b602435906001600160a01b038216820361018d57565b600d5481101561134557600d5f5260205f2001905f90565b634e487b7160e01b5f52603260045260245ffd5b90601f8019910116810190811067ffffffffffffffff8211176105dc57604052565b90602080835192838152019201905f5b8181106113985750505090565b82516001600160a01b031684526020938401939092019160010161138b565b9190820180921161084b57565b5f19811461084b5760010190565b67ffffffffffffffff81116105dc5760051b60200190565b80518210156113455760209160051b010190565b91908110156113455760051b0190565b356001600160a01b038116810361018d5790565b6001600160a01b039091165f818152600e602052604090205460ff1615611467575f52600c602052600460405f20019060018060a01b03165f5260205260405f205490565b50505f90565b8181029291811591840414171561084b57565b6001546001600160a01b0316330361149457565b63118cdaa760e01b5f523360045260245ffd5b60025f54146114b65760025f55565b633ee5aeb560e01b5f5260045ffd5b805f52600960205260405f209081541561157f5760088201805460ff81166115445760ff191660019081179091558201546003830154600590930154604080516001600160a01b039586168152602081019290925293909116927fcddabb1f3f7103e08f8654e0567f85344117545d674dbae941b862742d93561b91a3565b60405162461bcd60e51b8152602060048201526013602482015272105b1c9958591e48191a5cdd1c9a589d5d1959606a1b6044820152606490fd5b60405162461bcd60e51b8152602060048201526013602482015272496e76616c6964206f70706f7274756e69747960681b6044820152606490fd5b60405163a9059cbb60e01b60208083019182526001600160a01b0394909416602483015260448083019590955293815290925f916115f9606482611359565b519082855af11561055e575f513d61164057506001600160a01b0381163b155b6116205750565b635274afe760e01b5f9081526001600160a01b0391909116600452602490fd5b60011415611619565b60ff60015460a01c1661165857565b63d93c066560e01b5f5260045ffdfea264697066735822122045a70c0e8b18898a3b9680aeb153d97903eb20298331f708a4d839e244ec0dfa64736f6c634300081a0033","linkReferences":{}},"methodIdentifiers":{"MAX_BPS()":"fd967f47","MIN_CLAIM_INTERVAL()":"cd6606e2","addSupportedToken(address)":"6d69fcaf","batchClaimRewards(address[])":"d894f99c","claimRewards(address)":"ef5cfb8c","config()":"79502c55","distributeProfit(bytes32)":"928890d5","emergencyWithdraw(address,uint256)":"95ccea67","getAllClaimableRewards(address)":"ced93f61","getClaimableRewards(address,address)":"f56f4f0f","getDistributionStats()":"24b97c46","getSupportedTokens()":"d3c7c2c7","isTokenSupported(address)":"75151b63","owner()":"8da5cb5b","pause()":"8456cb59","paused()":"5c975abb","profitRecords(bytes32)":"36a1e0e0","recordProfit(bytes32,address,address,address,uint256)":"fb2060c4","renounceOwnership()":"715018a6","rewardPools(address)":"372d9448","supportedTokens(uint256)":"c6255626","totalDistributed()":"efca2eed","totalProfitsGenerated()":"6553f210","totalUsers()":"bff1f9e1","transferOwnership(address)":"f2fde38b","treasury()":"61d027b3","unpause()":"3f4ba83a","updateConfiguration((uint256,uint256,uint256,uint256,uint256,uint256,bool))":"c96ad380","updateTreasury(address)":"7f51bb1f","userPendingRewards(address)":"fc9d7711","userTotalProfits(address)":"1afd86fd"},"id":92}